:020000040800F2
:10000000F8640020715100081D5100081F510008BC
:10001000215100082351000825510008000000006C
:10002000000000000000000000000000754900080A
:1000300027510008000000001D4900084147000842
:10004000AD510008B1510008B5510008B951000880
:10005000BD510008C1510008C5510008C951000830
:10006000CD510008D1510008D5510008D9510008E0
:10007000DD510008E1510008E5510008E951000890
:10008000ED510008F1510008F5510008F951000840
:10009000FD510008015200080552000809520008ED
:1000A0000D5200081152000815520008195200089C
:1000B0001D5200082152000825520008295200084C
:1000C0002D520008315200083552000839520008FC
:1000D0003D520008295100084152000845520008CD
:1000E000495200084D52000851520008555200086C
:1000F000595200085D52000861520008655200081C
:10010000000000000000000000000000695200082C
:100110006D52000871520008755200082F510008F6
:10012000795200087D52000881520008855200086B
:10013000895200088D5200080000000000000000F5
:1001400091520008955200089952000800000000E2
:10015000000000000000000000000000000000009F
:1001600000000000000000009D520008A15200089D
:10017000A552000800000000000000000000000080
:1001800000000000A952000838B5040001D1012088
:1001900032BD606A28B900F0E5FB05D00021E161BD
:1001A00002E00020206160610020A06204F15C0593
:1001B000687820B900212970204600F039FC02201F
:1001C000687000F0C7FBE168B1F5E06F04D900206A
:1001D000B1F5706F03D104E04FF4805001D00021DD
:1001E000A1626168A268237C01F4827102F4044276
:1001F0001143227D03F002031943A36902F00102B7
:100200001143227F03F40073194394F8203002F065
:1002100038021143A26A03F080031943236802F4F1
:10022000005211431960A16994F8242094F83430E5
:10023000090C01F0040102F010021143E26803F01E
:100240000803194302F470621143084321684860AF
:100250002068C16921F40061C1610020686001214A
:10026000697032BD2DE9F843054605F144060027C3
:10027000307E01280C469146984608BF022000F0C7
:10028000A0800120307600F031FC717E012918BF7A
:1002900002274DD1002C18BFB9F1000F00F08B8060
:1002A00003217176F761AC63A5F83C90A5F83E9008
:1002B0002F6437807780F760B760A968B1F5004F89
:1002C00009D129680B6823F040030B6029680C688A
:1002D00044F480440C6029680B685C0603D40B6806
:1002E00043F040030B6040F20172EB68696893428F
:1002F000444621D3002918BFB9F1010F00F01CFAC0
:10030000804604E0A96B0A88C26000F00EFAE88F0C
:1003100000283DD0286881688A07F3D400F0E6FB06
:10032000A0EB0800A04204D314F1010FEFD0032783
:1003300042E0002CEBD1FAE7002918BFB9F1010F18
:1003400000F006FA804607E00988C160A86B811CAE
:10035000A963E88F811EE987E88FC8B128688168A2
:100360008A0708D5A96BEA8F022AEDD209780173B2
:1003700000F0D5F9EFE700F0B9FBA0EB0800A042D0
:1003800003D314F1010FE7D0D1E7002CE4D1CEE77D
:1003900042462146284600F0E9FA08B12020F061E3
:1003A000A86830B900972968CA68009289680091E6
:1003B000009AF06900B101270120707600213176A2
:1003C0003846BDE8F2832DE9F843002600F0C8FA6C
:1003D00004BFA06800289146984604F1440709D15B
:1003E00004267E76CDF800804B462A46204600F053
:1003F00097F88EE0387E012808BF0220F9D001204E
:10040000387600F073FB797E012918BF02267BD174
:10041000002D18BFB9F1000F75D004217976FE6167
:100420002564A7F80090A7F80290A663A687E68740
:10043000BE60FE6040F20171E36822688B4204D323
:10044000556825F48055556003E0536843F48053A4
:100450005360A268B2F5004F09D12268136823F0F7
:10046000400313602268156825F4804515602268F2
:1004700013685D0603D4136843F040031360054618
:10048000E2688A4222D206E0007B216C0870206C70
:10049000421C00F040F8788858B320688168CA0789
:1004A000F2D400F023FB401B404504D318F1010FA8
:1004B000F1D0032628E0B8F1000FECD1F9E7C068CD
:1004C000216C0880206C821C00F025F8788880B1AF
:1004D00020688168CA07F2D400F008FB401B404541
:1004E00003D318F1010FF1D0E3E7B8F1000FEDD11C
:1004F000DFE72A464146204600F001FA08B12020F5
:10050000F861F86900B1012601207876002139767A
:100510003046BDE8F28322647888411E79807047B6
:100520002DE9F047054605F144070C46387E0128C1
:1005300091464FF001084FF0000A08BF022000F07A
:10054000EC801E4687F8188000F0D0FA7B7E012BE5
:100550000AD06968B1F5827F02BFA9680029042B1F
:1005600002D04FF0020AD3E0002C18BFB9F1000FFF
:1005700000D00EB9C246CBE07B7E042B1CBF052108
:100580007976C7F81CA0C5F840907E803E80AC63A9
:10059000EE87AE87C7F808A0C7F80CA040F2017339
:1005A000E968994238BF022E04D329684C6824F4C4
:1005B000805403E029684C6844F480544C602968F6
:1005C0000C68620603D40C6844F040040C60EA68CE
:1005D0006968089C9A4237D3002918BF012E00F0A1
:1005E000ABF88146E88F002804BF7888002836D011
:1005F0002968886882070BD5E88F002818BFB8F1F2
:10060000000F05D0A86B0288CA60D04600F08DF8B4
:1006100029688868C2070BD5788848B1C868296CF2
:1006200008804FF00108286C821C2A64FFF774FFD1
:1006300000F05CFAA0EB0900A042D3D314F1010F43
:10064000D0D04FF0030A63E0002918BF012E00F05C
:100650007FF88146E88F002804BF788800284DD0B5
:1006600029688868820718D5E88F002818BFB8F174
:10067000000F12D0A86BEA8F022A08D30088C86046
:10068000A96B881CA863E98F881EE88704E00278BC
:100690000A7300F044F8E987D04629688868C207E1
:1006A0001FD57888E8B1286C7A88022A10D3C968E7
:1006B0000180286C821C2A647888811E7980788861
:1006C00002280CD22868416841F48051416006E05C
:1006D000097B0170286C421C2A64FFF71DFF4FF054
:1006E000010800F003FAA0EB0900A04203D314F1C3
:1006F000010FAFD0A5E7002CACD1A2E728464A46AF
:10070000214600F033F918B120204FF0010AF861BA
:1007100001217976002038765046BDE8F087A86B35
:10072000411CA963E88F411E7047A86B811CA96317
:10073000E88F411EE987704709D1A96B2B680A88A9
:10074000DA60A96B8A1CAA63E98F4A1EEA877047A0
:1007500015D1A96B2A68EB8F022B08D30988D160C9
:10076000AA6B911CA963EA8F911EE98770470B78E9
:100770001373A96B4A1CAA63E98F4A1EEA87704764
:100780002DE9F843089C05460E4690461F4600F0AA
:10079000ADF9381A241800F0A9F98146DFF81402DF
:1007A00001684901090D6143009105E0009800B915
:1007B00000240098401E0090286881683140B142B2
:1007C0000CBF01200020404532D017F1010FF3D0BB
:1007D00000F08CF9A0EB0900A04201D2002CE5D179
:1007E0002868416821F0E00141606868B0F5827FC7
:1007F0000BD1A868B0F5004F18BFB0F5806F04D1D9
:100800002868016821F040010160A86AB0F5005F26
:1008100009D12868016821F4005101602868026844
:1008200042F40052026005F15C0000F062F800E062
:100830000020BDE8F2832DE9F843089D06460F46E7
:100840001446984600F052F9A8EB00002D1800F06D
:100850004DF9DFF860110A68814623204243120DEA
:100860006A43009205E0009800B900250098401EF8
:100870000090306881683940A14237D0B7F5C06F29
:1008800004BF002C007B18F1010FF2D000F02EF90C
:10089000A0EB0900A84201D2002DE4D130684168E4
:1008A00021F0E00141607068B0F5827F0BD1B06843
:1008B000B0F5004F18BFB0F5806F04D13068016803
:1008C00021F040010160B06AB0F5005F09D13068E5
:1008D000016821F4005101603068026842F400525E
:1008E000026006F15C0000F004F800E00020BDE8C2
:1008F000F2830121417000220270032070477CB511
:1009000000F02EF8164608D1A068B0F5004F18BFC9
:10091000B0F5806F01D100F01DF800F015F870B946
:1009200000F020F80ED1A068B0F5004F18BFB0F568
:10093000806F07D100962B4600F037F810B100F019
:100940002CF876BD002076BD00962B460022802133
:10095000204615E72068016821F0400101607047DA
:1009600004460D466068B0F5827F70477CB50D4641
:100970001646044600962B4600224FF4C051FFF75E
:100980005AFF38B9FFF7E0FF20B900962B4600F078
:100990000CF808B100F001F876BD206E40F02000A0
:1009A0002066032070470090642300224FF4C0614A
:1009B000204640E76402002080B54548454900F0E4
:1009C00024F80821C16100230721C16200F015F855
:1009D00000F023F800B127E001BD80B53E483F4953
:1009E00000F013F80721C162002300F006F8C3618C
:1009F00000F013F800B117E001BD4FF400720821B8
:100A00008360036143618261704701604FF48272C9
:100A10004FF44071C1604260704703624362836279
:100A200003634163FFF7B0BBBDE8014000F0F4B8D9
:100A300010B586B0044614220021684600F0EDF897
:100A40002068244A2649904218D1486840F48050D2
:100A50004860486800F48050059005980A6842F4A0
:100A600080220A600222096801F480210591282170
:100A700005981C4800F025F805211BE0174A904214
:100A80001DD1886840F400408860886800F4004008
:100A9000059005980A6842F400220A60022209685B
:100AA00001F4002105914FF4E05105980E4800F043
:100AB00008F8062104910392694600F0D5F806B0C3
:100AC00010BD0091019200210291032270470000A5
:100AD000045800200030014068580020003C0040CD
:100AE0001410024000040048000800480148406813
:100AF000704700BF5802002080B500F08FF900F069
:100B00003BF800F09DF900F025FA00F050FA00F0F3
:100B100045FB00F050FB00F05EFB00F0ACFB00F08A
:100B2000D0FB00F0B3FB00F06DFE00F034FAFFF7ED
:100B300043FFFFF752FF00F022FC00F06DFC00F0D5
:100B400077FC00F077FE324A506878B90121002026
:100B500001431078014304D04FF4E1310D2051607E
:100B6000906000F0EFFE00F07FFFFEE7002110F143
:100B7000010FECD10120EBE780B59EB028220021C7
:100B800005A800F04AF814220021684600F045F854
:100B90003C2200210FA800F040F84FF480310022E1
:100BA000069107920D9101200590099002224FF4C1
:100BB000E0110C920E9105A800F092FF0221019124
:100BC0000F204FF480610090002203910292049262
:100BD0000221684601F00CF900211191129143F2B3
:100BE00083104FF4807118910F904FF40052002140
:100BF00019921B911C910FA801F0ECF91FB000BDD8
:100C000000680449884208BF01F0BEBA704700007E
:100C10000000002000140040704710B50446104644
:100C20000A460146204601F0B7FA204610BD30B40E
:100C3000002513E050F8042BD30744BFA9F10103AA
:100C40009A18091F042942F8045BFAD213468C074C
:100C500044BF15809B1CC90748BF1D7050F8041B7A
:100C60000029E7D130BC70472DE9F84F0027644ACE
:100C7000644B4FF00F0805460E4634E0624CA54227
:100C800014BF052404248C40604944EA0E0441F852
:100C90002C40C143146801EA040C7468E40348BFA3
:100CA00040EA0C0CC2F800C0546801EA040C7468F5
:100CB000A40348BF40EA0C0CC2F804C0946801EADF
:100CC000040C7468E40248BF40EA0C0CC2F808C087
:100CD000D46801EA040C7168890248BF40EA0C0C30
:100CE000C2F80CC07F1C316831FA07F000F0808038
:100CF0000124BC4014EA0100F4D04FEA470C032160
:100D000001FA0CF16FEA010E7168012918BF02297E
:100D100003D0112918BF122912D1A968D6F80C9056
:100D20000EEA010109FA0CF949EA0101A9606968B2
:100D300021EA04047168C1F30011B9400C436C60EE
:100D4000E968B4680EEA010104FA0CF42143E96091
:100D5000B9007468022C18BF122C12D1FC0805EBE4
:100D6000840401F01C09D4F820A008FA09FB2AEA3F
:100D70000B0AD6F810B00BFA09F949EA0A09C4F8C7
:100D800020902C680EEA040E347904F0030404FA6F
:100D90000CF444EA0E042C607468E400A2D51C68CC
:100DA00044F001041C604FEA970C1C6804F0010435
:100DB000009401F00C01009C144C54F82C4008FAEB
:100DC00001FE24EA0E0EB5F1904F08BF00240ED0AC
:100DD0000F4CA54208BF012409D00E4CA54208BF04
:100DE000022404D00C4CA5427FF448AF03244AE708
:100DF000BDE8F18F0AB181617047816270470000E0
:100E00000004014018100240001000480800014092
:100E10000004004800080048000C004880B507485E
:100E2000016841F010010160032001F0CCF90020BD
:100E300001F008FA01F042FA002002BD0020024051
:100E400070B586B0142200216846FFF7E6FE3748E9
:100E5000374C0168374D384E41F40011016002688B
:100E600002F4001205920599026842F480020260C1
:100E7000036803F4800300F061F842F4002202608A
:100E8000036803F4002300F059F842F400320260D2
:100E9000036803F4003300F051F842F4802202604A
:100EA000036803F4802300F049F842F480120260E2
:100EB0000022006800F4801005904FF4004105986E
:100EC0004FF09040FFF796FF002284212046FFF765
:100ED00091FF00224FF404712846FFF78BFF002298
:100EE00001213046FFF786FF4FF4004100F02AF859
:100EF0004FF09040FFF7B8FE842100F023F8204621
:100F0000FFF7B2FE4FF4047100F01CF82846FFF71B
:100F1000ABFE012100910191304600210291039125
:100F20006946FFF7A1FE06B070BD00001410024034
:100F3000000C004800040048001000480593059983
:100F400002687047009101220021029103910192F1
:100F50006946704718B589B00C22002106A8FFF732
:100F60005CFE00F01FF8814C4FF0A04000F03DF80F
:100F700008B1FFF751FE0020069006A9204601F0B7
:100F800079FC08B1FFF748FE00F023F808B1FFF73D
:100F900043FE0AB010BD10B586B000F003F8744CE3
:100FA00074480AE0182200216846FFF736BE10B5E3
:100FB00086B0FFF7F7FF704C704800F016F808B1E4
:100FC000FFF72AFE00F005F808B1FFF725FE06B08E
:100FD00010BD012100910191204600210391029151
:100FE00004910591694601F0B3BA20600021012007
:100FF000A062E061042204F130006160A16021611F
:10100000617684F82010E162E1600170626121760E
:101010004160204601F070B910B586B00446142234
:10102000FFF7C1FF56490A6823685648521CB3F1BE
:10103000A04F28D100F07EF842F40022026001683F
:1010400001F4002105910599026842F480020260D2
:10105000036803F4800305930599026842F40032A3
:1010600002600F2100F05FF8474800F071F814208B
:1010700000F075F84548FFF7F7FD0F2000F06FF816
:101080004FF090404BE03B4CA3420FD100F052F8A0
:1010900042F400320260302100F045F800910192E4
:1010A000002102914FF09040694638E033498B426D
:1010B00037D1026842F000520260016801F000512D
:1010C00005910599026842F400120260036803F476
:1010D000001305930599026842F4802202600368B8
:1010E00003F4802305930599026842F4801202609C
:1010F0004FF44141006800F48010059003220598E8
:10110000234800F025F84FF4504000F028F821481B
:10111000FFF7AAFD4FF4FE4000F021F81E48FFF74C
:10112000A3FD06B010BD006800F400300590032256
:1011300005987047012A0A6008D1016841F0805182
:101140000160026802F080520592059902687047BA
:1011500000910192002102916946FFF785BD0321AC
:10116000009001910022029269467047CC580020FD
:101170001C590020000100506C590020000500504F
:10118000EC5C0020141002400008004800140048E5
:101190000010004800040048000C004818B595B045
:1011A00000F014F800F062F800F0E4F8DFF8F4451D
:1011B000DFF8F40591E010B58AB000F007F800F010
:1011C00055F8DFF8E8454FF080400EE00C22002192
:1011D0006846FFF722BD10B58AB0FFF7F7FF00F0B1
:1011E00045F8DFF8CC45DFF8CC05206000216160D0
:1011F000A160E1602161A161204601F06CFC08B1B1
:10120000FFF70AFD0021009102912046694601F096
:1012100053FF08B1FFF700FD602103910022049203
:101220000592079203A9204601F027FD08B1FFF7B8
:10123000F3FC042203A9204601F01FFD08B1FFF7CB
:10124000EBFC082203A9204601F017FD08B1FFF7C7
:10125000E3FC0C2203A9204601F00FFD08B1FFF7C3
:10126000DBFC204600F0AAF90AB010BD1C220021C8
:1012700003A8FFF7D2BC10B58AB0FFF7A7FFFFF7AE
:10128000F5FFDFF83445DFF83405AEE71FB5FFF7AB
:101290009DFFDFF82C45DFF82C0500F00CF9A1616B
:1012A000204601F0A3FB08B1FFF7B6FC0021009136
:1012B00002912046694601F0FFFE08B1FFF7ACFC41
:1012C0001FBD18B595B0FFF781FFFFF7CFFF00F006
:1012D00051F8DFF8F444DFF8F40400F092F808B1B4
:1012E000FFF79AFC0020009001900290694620468A
:1012F00001F0E2FE08B1FFF78FFC602000210390AF
:10130000049100220691089105920792099200F03B
:10131000D8F808B1FFF780FC042200F0D2F808B139
:10132000FFF77AFC082200F0CCF808B1FFF774FC54
:101330000C2200F0C6F808B1FFF76EFC00204FF455
:1013400000510A900B900C900D900E900F91109000
:1013500011904FF000721390149012920AA9204637
:1013600001F0E5FE08B1FFF757FC204600F026F932
:1013700016B010BD2C2200210AA8FFF74EBC18B5EC
:1013800095B00C22002107A8FFF747FC1C22FFF7AD
:101390001EFFFFF7EFFFDFF83844DFF8380400F0F6
:1013A00030F808B1FFF738FC002107910991204679
:1013B00007A901F081FE08B1FFF72EFC6020002193
:1013C00000900191002203910591029204920692ED
:1013D000694600F077F808B1FFF71EFC0422694661
:1013E00000F070F808B1FFF717FC00210A910B918B
:1013F0000C910D910E914FF40052109114910F9297
:10140000ACE7206000216160A160E1602161616161
:10141000A161204601F05FBB10B592B000F055F815
:101420002C22FFF7D4FEDFF8B043DFF8B0030AE068
:1014300010B592B000F049F82C22FFF7C8FEDFF893
:10144000A043DFF8A00300F036F821616161A161DB
:10145000204601F0CBFA08B1FFF7DEFB204601F091
:101460003AFB08B1FFF7D8FB602000210B900C91EC
:1014700000220E9110910D920F9211920BA900F083
:1014800021F808B1FFF7C8FB0021009101910291FA
:10149000039104914FF4005206910A910592694616
:1014A000204601F044FE08B1FFF7B6FB204600F0ED
:1014B00085F812B010BD206000216160A160E1607C
:1014C000704703A9204601F0D8BB1C2200210BA8BD
:1014D000FFF7A3BB81B00068DFF8CC22DFF8081368
:1014E000904207D1086840F400600860096801F480
:1014F000006137E0B0F1804F07D1486840F001004B
:101500004860486800F0010015E0DFF8A82290422A
:1015100007D1486840F002004860486800F00200C7
:1015200009E0A64A904208D1486840F004004860AB
:10153000486800F00400009015E0A44A904207D1EA
:10154000086840F400500860096801F4005109E09F
:10155000A04A904208D1086840F4803008600968C9
:1015600001F480310091009801B0704781B00068AB
:10157000944A9D49904208D1486840F01000486064
:10158000486800F01000009015E0944A904207D19E
:10159000086840F400300860096801F4003109E08F
:1015A000904A904208D1086840F480200860096899
:1015B00001F480210091009801B0704738B586B0E1
:1015C00004461422FFF703FE2268774B87488849B8
:1015D0009A4220D10A6842F400120A600B6803F4B0
:1015E00000130593059A0B6843F400330B604FF426
:1015F0002852096801F4003100F0C0F8FFF734FB0D
:101600000022029203924FF4006002210B2200900C
:101610000191049299E0B2F1804F764C764D21D140
:10162000086840F4802008600A6802F4802205926D
:1016300005980A6842F480120A600222096801F4DF
:10164000801105914FF4406100F0A4F82846012173
:1016500004916946FFF708FB0022182000F085F886
:10166000204675E0534B9A420AD10A6842F40012B0
:101670000A603C22096801F4001100F07FF867E07D
:101680004E48824222D10A6842F480120A600868F9
:1016900000F48010059005980A6842F480220A60E0
:1016A0000222096801F4802105914FF4004100F005
:1016B00071F82046022104916946FFF7D5FA00220D
:1016C0004FF4E07000F051F8284641E03F48824274
:1016D00010D10A6842F400220A600222086800F46D
:1016E000002005904FF470710598444800F053F8BD
:1016F000042112E03748824212D10A6842F4800283
:101700000A600222086800F4800005904FF4C0616E
:1017100005983B4800F03FF803210491694617E023
:101720002E48824203D100F017F8402105E02D48F1
:1017300082420FD100F010F880210598009102221A
:1017400000F02BF801920121049169464FF090407E
:10175000FFF78AFA07B030BD0A6842F400320A6027
:10176000086800F40030059070470221029203924D
:10177000009001910222049269467047059102236C
:101780000599009201930022029203926946022277
:1017900004927047059800910192002102910391F3
:1017A00070470000085A0020002C0140545A0020C5
:1017B000A05A002000040040EC5A0020000800401D
:1017C000385B002000100040845B002000340140A2
:1017D000D05B0020004001401C5C00200044014020
:1017E000685C0020004801401810024000100048CA
:1017F00014100240000C0048000400480008004893
:101800000014004880B54548454901604FF4164230
:101810000C21426041610023002200218360C360EB
:1018200002618261C1610262416201F0CDFC00B1DE
:1018300016E001BD80B53B483B4901604FF41642BC
:1018400000230C2142608360C360036141618361B6
:10185000C3610362436201F001FD00B100E001BD1C
:10186000BDE80140FFF7D8B910B586B00446142290
:1018700000216846FFF7D1F92068294A2B49904298
:1018800023D1486840F480404860486800F48040B4
:10189000059005980A6842F400320A60022209683D
:1018A00001F4003105914FF4B051059800F02BF888
:1018B0004FF09040FFF7D8F900220521252000F0D5
:1018C0008FFC252000F0A9FC1BE0174A904218D19C
:1018D000886840F400308860886800F40030059023
:1018E00005980A6842F480120A600222096801F42D
:1018F00080110591602105980D4800F004F8FFF76C
:10190000B3F906B010BD00910192002102910322AB
:10191000072104910392694670470000FC5600209D
:10192000003801408057002000440040141002405D
:10193000000C00482F4B036003F154000860802125
:101940001160704710B58EB00DF11C0035A12A4C06
:101950001C2202F00BF8002107A800F08AF8206092
:101960001C22684636A102F001F80021684600F00A
:1019700080F860600EB010BD70B500BF26A393E87C
:10198000700090B06846322280E87000002103A801
:10199000FFF743F9194C1A4D002204212846FFF79E
:1019A00029FA6423012269462046FEF75BFC642085
:1019B00001F0E8FF6423012203A92046FEF703FD9E
:1019C000012204212846FFF715FA012000F080F8D3
:1019D000E2E780B500210B480368009103224168CB
:1019E000C9B2002001F0E2FF02F00CF802F017F893
:1019F000FCE7000080520020E45C002068580020D2
:101A0000000C0048040000200020704700207047B0
:101A10000120704701207047050000000000000011
:101A20000000000080510008791900080000000043
:101A300000000000000200000000000000000000A4
:101A40008C510008D31900080000000000000000BD
:101A5000000200000000000000000000014600201D
:101A6000842918BFC81C704780B502F03DF90020DA
:101A700002BD38B5044684B0606900281CBFA06967
:101A800000280D4612D0B4F90800FFF7E7FFA1695E
:101A900002912B4662690192009022692168606878
:101AA00002F01CF80390039805B030BDB4F90800AB
:101AB000FFF7D4FF03A9019100902B46226921680A
:101AC000606892B202F038F80128ECD00020EBE711
:101AD00080B500B9012002F0EDF8002002BD000041
:101AE0002DE9F843040019D02078DFF89854C10795
:101AF00016D5686800F00C0004280AD0686800F069
:101B00000C00082802BF686800F48030B0F5803F00
:101B100041D100F0E6F918B16068002800F05F815B
:101B20002078DFF8706481071BD5686810F00C0F0F
:101B300007D0686800F00C0008286CD16868C10301
:101B400069D42868C0F3400000281CBF2069012820
:101B500040F045812968606921F0F80141EAC0013F
:101B600029602178080740F18C80A069DFF82814EB
:101B7000002878D001220A60FEF7B8FF0746686A9D
:101B8000C0F3400000287CD1FEF7B0FFC01B022844
:101B9000F5D9032026E16068B0F5803F04D12868BC
:101BA00040F48030286014E008B928680AE0B0F5F5
:101BB000A02F286806D140F480202860296841F4CD
:101BC000803105E020F480302860296821F48021EC
:101BD0002960E86AA168000941EA0010E8626068CB
:101BE00060B1FEF783FF064600F07BF9002897D12D
:101BF000FEF77CFF801B6528F6D3CAE7FEF776FF69
:101C0000064600F06EF900288AD0FEF76FFF801BB1
:101C10006528F6D3BDE72069B0B101213160FEF738
:101C200065FF07462868C0F3400028B9FEF75EFF4D
:101C3000C01B0228F6D9ACE72868616920F0F800DB
:101C400040EAC10028608CE73060FEF74FFF07468E
:101C50002868C0F34000002883D0FEF747FFC01B70
:101C60000228F5D995E70860FEF740FF0746686A45
:101C7000C0F3400028B1FEF739FFC01B0228F6D997
:101C800087E72078410763D5E8690027C10009D4B8
:101C9000E86940F08050E8610127E86900F0805071
:101CA00000900098DFF8F482D8F80000C10513D442
:101CB000D8F8000040F48070C8F80000FEF716FF66
:101CC0008146D8F80000C10506D4FEF70FFFA0EB4F
:101CD00009006528F5D35CE7E068012808D008B959
:101CE000286A09E00528286A06D140F00400286225
:101CF000286A40F0010005E0400840002862286A98
:101D000020F00400286241F28938E06868B1FEF7EB
:101D1000EDFE8146286AC0F34000A0B9FEF7E6FE5A
:101D2000A0EB09004045F5D333E7FEF7DFFE81461F
:101D3000286AC0F3400030B1FEF7D8FEA0EB0900DE
:101D40004045F5D325E71FB1E86920F08050E861F0
:101D5000E069002845D0696801F00C01082931D0FC
:101D6000022822D100F040F807462868C0F34060FE
:101D700028B1FEF7BBFEC01B0228F6D909E7686848
:101D8000616A226A20F474100843104368600120DD
:101D900000F02BF804462868C0F3406008BBFEF74B
:101DA000A5FE001B0228F6D9F3E600F01DF8044654
:101DB0002868C0F34060A0B1FEF798FE001B02281F
:101DC000F6D9E6E601280AD06868226A00F4803174
:101DD000914202BF00F47010616A884201D0012074
:101DE00000E00020BDE8F28300203066FEF77EBEF2
:101DF0002DE9F0410400884643D0694E00F06CF8AC
:101E000002D200F064F83CD120785E4D810705D500
:101E10006A68A06822F0F00202436A602178C8076D
:101E200027D56168012902D100F05BF804E002299E
:101E3000286803D1C0F3406018B922E0C0F3400025
:101E4000F8B16868800841EA80016960FEF74EFEDB
:101E500007466868616800F00C00B0EB810F08D09D
:101E6000FEF744FEC01B41F289318842F1D30320C2
:101E70002BE0306800F00700804504D200F027F81E
:101E800001D0012021E02078410705D56A68E0688B
:101E900022F4E06202436A602178080706D5696887
:101EA000206921F4605141EAC001696000F01EF828
:101EB0006A683C49344BC2F30312895CC84018601D
:101EC0003348006800F0BEF90020BDE8F0813168B9
:101ED000C90848EAC1013160306800F00700404598
:101EE00070472868C0F340407047000010B52E4985
:101EF0000A6802F00C00082814D100BF2DA3C2F319
:101F00008340D203185C896A09D500BF2DA41F4BFA
:101F100001F00F01625CB3FBF2F2504310BD2349A4
:101F2000484310BD194810BD17481F4A0068136880
:101F30001F49C3F3022206E013481B4A00681368D6
:101F40001B49C3F3C222895CC840704710B50F22F9
:101F50000260154A136803F003034360146804F039
:101F6000F0048460136803F4E063C3601268D2086D
:101F700002F4E06202610A48026802F007020A60A5
:101F800010BD0000001002406402002000127A0020
:101F90006002002000004242800442420070004083
:101FA00000200240805000080410024000093D005B
:101FB000A451000802030405060708090A0B0C0DCA
:101FC0000E0F10100102030405060708090A0B0C86
:101FD0000D0E0F102DE9FC41054600242868DFF89E
:101FE0009C61C10352D5B069C10009D4B06940F009
:101FF0008050B0610124B06900F0805000900098DA
:10200000DFF87C713868C10511D4386840F48070FD
:102010003860FEF76BFD80463868C10507D4FEF7CF
:1020200065FDA0EB08006528F6D30320A4E0F06965
:1020300010F440701EBF696801F4407188421AD0E4
:10204000DFF84011F06901220A60002320F440709B
:102050000B60F061C0070ED5FEF748FD0746F0693A
:10206000C0F3400038B9FEF741FDC01B41F2893191
:102070008842F4D3D9E7F269686822F440720243D7
:10208000F2611CB1B06920F08050B0612878C107BE
:1020900005D5F26AA868920840EA8202F2622978BD
:1020A000880705D5F16AE86821F440310143F162FF
:1020B0002978480705D5F16A286921F440210143B0
:1020C000F1622978880605D5F16AE86921F01001E6
:1020D0000143F1622968880305D53168A86B21F4B2
:1020E0008001014331602978480605D5F16A286AE4
:1020F00021F020010143F1622978080705D5F16A32
:10210000686921F440110143F1622978C80605D5B8
:10211000F16AA86921F440010143F1622968880548
:1021200005D53168E86A21F400010143316029785E
:10213000080605D5B16A686A21F4F8710143B162F5
:102140002968C80505D5B16AA86A21F47851014308
:10215000B1622968C80405D5F16A286B21F4807141
:102160000143F1622968880405D5F16A686B21F49E
:1021700000710143F1620020BDE8F68104100240C5
:1021800000700040400442420248416802788A18C8
:1021900042607047580200204018491C1CBFB1F132
:1021A000010100F8012DF9D170470000090102007A
:1021B00002D41F48815470471E4B02F00F021A448C
:1021C00002F8041C70471C4B19684FF6FF0200020E
:1021D000114000F4E0600843184908431860704754
:1021E00070B5154B1C68C4F302230124C3F1070525
:1021F000052D2EBF0F2504FA05F56D1E1E1D072E99
:1022000034BF0023DB1E2940994004FA03F3BDE8E4
:1022100070405B1E1A401143C8E7010007D4012239
:1022200000F01F01064B8A40400943F82020704708
:1022300000E400E018ED00E00CED00E00000FA051D
:1022400000E100E018B5014687B000223720FFF713
:10225000C7FF3720FFF7E1FF1448154C016841F034
:102260002001016001A9006800F0200000900098A2
:1022700002A8FFF76BFEFFF757FE0E49216040F200
:10228000E73240000C49E260B0FBF1F0401E6060B4
:1022900000222261A260204600F0A8FB18B9204667
:1022A00000F0B1FB00E0012008B010BD1C1002409E
:1022B000BC5900200014004040420F000D4882B07D
:1022C000016841F001010160026802F00102009220
:1022D0000099426842F0805242600022406800F05B
:1022E000805000900F2100986FF0010002B0FFF7BE
:1022F00077BF00BF18100240F8B5002604460096CC
:102300000CB90120F2BD04F130052869C1064DD495
:10231000286998BB6E61E8612873AE612046FEF7BC
:102320007BFE20688168C80028D400F00DF90646BD
:102330002869C10622D4300020D12869DFF8DC21C9
:10234000DFF8DC3120F4885040F00200286120687A
:10235000816821F0405181602068816841F080519E
:1023600081600A201168B1FBF3F34343009302E05C
:102370000098401E009000980028F9D120688168DC
:10238000CA0002D58068810010D5286920F00200BB
:1023900040F0100000F0BBF82869296921F0020123
:1023A00041F01001296101263046F2BD2869C106BD
:1023B000F3D43000F1D1226890684107EDD4286948
:1023C000DFF86031DFF86071DFF8601120F48070B1
:1023D00040F002002861B2F1A04FDFF854010ED0A6
:1023E000824208BF4FF0A04009D0BA42DFF8441142
:1023F00008BF184603D09A420CBF38460020D2F8D6
:1024000008C00CF0030CBCF1010F02D11268D20716
:102410000ED438B1826802F00302012A02D10068AA
:10242000C20705D4086820F4403260681043086091
:102430006968607EE268012914BF4FF4805C4FF048
:10244000000C4CEA40310A43A16841EA020C94F8BE
:102450002020012A0FD138B9606A401E400440F4A0
:10246000803040EA0C0C06E0286920F0020040F0C1
:10247000200000F04CF8A16A2268012918D0BA4265
:1024800018BF9A4210D1B1F5307F08BF4FF4E07108
:102490000AD0B1F5807F08BF4FF4307104D0B1F598
:1024A000E07F08BF4FF48071E06A014341EA0C0C01
:1024B000916811F00C0F0BD1D168DFF87C0001405E
:1024C000D1602878217E400040EA813040EA0C0C3F
:1024D0002168DFF86800CA6802404CEA0200C86060
:1024E000216920680129016B05D1E2690909521EA1
:1024F00042EA011101E00909090101630020686154
:10250000296921F0020141F0010129614CE72861AC
:10251000686940F0010068617047000064020020B3
:1025200040420F0000050050000400500803005016
:102530000001005008070050FDBFFFFF07C0F0FF7B
:102540000446206881687047204600F00ABA0000FF
:102550002DE9F8410A46002100F13C04009125785C
:10256000012D08BF022000F067810123237003685A
:102570009D686E0700F15881576815681F26052F62
:102580004FF0060C0BD20CFB07F7D3F830C0BE405F
:102590002CEA060605FA07F737431F631DE00A2FEA
:1025A00008D27F1F17FB0CF7D3F834C000F054F9A2
:1025B0005D6312E00F2F08D20A3F17FB0CF7D3F828
:1025C00038C000F049F99D6307E00F3F17FB0CF797
:1025D000D3F83CC000F040F9DD6307250668B36816
:1025E00013F00C0F3ED1136897680A2B0DD30A3BEA
:1025F00003EB430CD6F818E005FA0CF32EEA0303BC
:1026000007FA0CF71F43B7610BE003EB430CD6F856
:1026100014E005FA0CF32EEA030307FA0CF71F4344
:10262000776103685769DE68D2F810E0F608760033
:1026300006F00606AEF1010E07FA06F6BEF1030F2C
:10264000DFF8887332D8DFE80EF0020E1A26D3F8CE
:102650006080D2F800C007EA080747EA8C6700F0FC
:10266000F1F81E6645E0D3F864C0D2F800E007EA4E
:102670000C0747EA8E6700F0E5F85E6639E0D3F8AC
:1026800068C0D2F800E007EA0C0747EA8E6700F05E
:10269000D9F89E662DE0D3F86CC0D2F800E007EAC6
:1026A0000C0747EA8E6700F0CDF821E01E6E00F0BF
:1026B000D9F803D11E6E26F000461E6603685E6ED2
:1026C00000F0D0F803D15E6E26F000465E66036827
:1026D0009E6E00F0C7F803D19E6E26F000469E66FF
:1026E0000368DE6E00F0BEF803D1DE6E26F0004611
:1026F000DE6603689E6806F00306012E02D11E689E
:10270000F7073BD41668012707FA06F6D768012FAA
:1027100006D0D3F8B05025EA0606C3F8B0601AE038
:10272000D3F8B0703E43C3F8B0601768936806688A
:102730000A2F08D3093F07EB4707D6F818C000F067
:1027400085F8B56107E07F1C07EB4707D6F814C092
:1027500000F07CF87561036839481268B3F1A04F46
:1027600016BF8342DFF86852344D102A02D12E681A
:10277000370203E0112A03D12E68F70159D404E08F
:10278000122A56D12E68770253D4B3F1A04F0FD03E
:10279000834208BF4FF0A0400AD0DFF83802DFF8CC
:1027A000D060834208BF304602D0B34218BF002039
:1027B0009E6806F00306012E02D11E68F70733D487
:1027C00038B1866806F00306012E02D10068C607FC
:1027D0002AD4102A18D1B3F1A04F2AD12868DFF8E3
:1027E000F82140F4000028600A201368DFF8EC515B
:1027F000B3FBF5F545430095009800281EBF0098EF
:10280000401E0090F8D114E0112A06D1B3F1A04F78
:102810000FD1286840F0807004E0122A09D128689E
:1028200040F48000286004E0606840F020006060B0
:102830000121002020700846BDE8F2810807005001
:10284000000100503E4346F000467047BD402CEA70
:102850000505BB401D437047BE402CEA0606BD403F
:1028600035437047176806F0F846B6EB876F704738
:1028700000050050F0B50368594E0022B3F1A04F97
:1028800007D1354600F13004277B012F0FD10220FC
:10289000F0BDB34208BF4FF0A045F3D04D4D4A4CB8
:1028A000AB420CBF2546A342ECD00120F0BD01276E
:1028B00027739F687F0746D4AF687F0743D4B3F17F
:1028C000A04F16BFB342424E464E0B68464F0BB365
:1028D000336894F800E023F4604C4B6843EA0C033F
:1028E00043EA4E3333600068836800F036F802D163
:1028F0000068C3072CD4A86800F00300012802D1A7
:102900002868C30724D43568086889682F400743BE
:102910000F4316E0336823F4604333600068816836
:1029200001F00301012902D10068C10710D4A86891
:1029300000F00300012802D12868C10708D43068DC
:102940000740376004E0216941F020012161012244
:10295000002020731046F0BD936803F00303012BA1
:10296000704738B5FFF7ECFD01F0030101291BD1D9
:102970000168CA0718D5816801F00D01012912D13B
:10298000816841F002018160032021680860FEF740
:10299000ADF8054620688168C80705D5FEF7A6F89A
:1029A000401B0328F6D301E0002032BD00F001F8FF
:1029B00032BD206C40F010002064606C40F00100DB
:1029C00060640120704700000005005000F0FF83A4
:1029D00008030050000400506402002040420F0031
:1029E0000001005008070050E0F0FFFF38B5040078
:1029F00001D1012032BD00F08BF818B900F084F845
:102A0000FEF7B4FD52E090F83D10012901D00120FD
:102A10007047022180F83D100168CA6842F0010247
:102A2000CA600168DFF8C800814218BFB1F1804F69
:102A30000FD0DFF8C00081421CBFDFF8BC209142FC
:102A400007D0DFF8B80081421CBFDFF8B420914204
:102A50000DD18A68DFF8AC000240062A18BFB2F533
:102A6000803F08D0086840F00100086003E00A6871
:102A700042F001020A60002070470168CA685208EB
:102A80005200CA6041F2111301680A6A1A4202BF79
:102A90000A6A40F244431A4203D10A6852085200BB
:102AA0000A60012180F83D10002070470220687004
:102AB000211D206800F068F901202873A870E870D3
:102AC00028716871A871E87128726872A872E8723A
:102AD0006870002032BD38B5040001D1012032BD3C
:102AE00000F016F818B900F00FF8FEF7F3FCDDE778
:102AF000002C014000040040000800400034014068
:102B00000040014007000100002129702046704765
:102B100004F13C056878704710B5044620680169E7
:102B20008A0715D5C1688A0712D56FF002010161C5
:102B300001222277806910F0030F204602D001F0B5
:102B400091FA03E001F08FFA00F094F8002020776A
:102B5000206801694A0715D5C1684A0712D56FF088
:102B60000401016102222277806910F4407F20462F
:102B700002D001F077FA03E001F075FA00F07AF87C
:102B800000202077206801690A0715D5C1680A0767
:102B900012D56FF00801016104222277C06910F09C
:102BA000030F204602D001F05DFA03E001F05BFA6A
:102BB00000F060F80020207720680169CA0615D56A
:102BC000C168CA0612D56FF0100101610822227790
:102BD000C06910F4407F204602D001F043FA03E0C0
:102BE00001F041FA00F046F80020207720680169E2
:102BF000CA0708D5C168CA0705D56FF00101016190
:102C00002046FDF7FDFF206801690A0608D5C16866
:102C10000A0605D56FF080010161204601F024FA13
:102C200020680169CA0508D5C1680A0605D56FF490
:102C300080710161204601F018FA206801694A0696
:102C400008D5C1684A0605D56FF0400101612046EC
:102C500001F00CFA206801698A060AD5C1688A0663
:102C600007D56FF0200101612046BDE8104001F05A
:102C7000FEB910BD204601F0FBB938B500F07EF872
:102C800001D1022032BD012084F83C0052B1042A57
:102C900019D0082A29D00C2A38D0102A48D0142A52
:102CA00057D067E0206800F0BFF82168886940F0DD
:102CB00008008861886920F0040088618A692869B1
:102CC00002438A6156E0206800F0EFF820688169CD
:102CD00041F400618161816921F4806181618169D0
:102CE0002A6941EA0221816144E0206800F016F976
:102CF0002168C86940F00800C861C86920F0040074
:102D0000C861CA6928690243CA6133E0206800F0DB
:102D10003DF92068C16941F40061C161C16921F4D4
:102D20008061C161C1692A6941EA0221C16121E072
:102D3000206800F052F92168486D40F008004865AD
:102D4000486D20F0040048654A6D286902434A65D1
:102D500010E0206800F06BF92068416D41F40061DB
:102D60004165416D21F480614165416D2A6941EA07
:102D700002214165002084F83C0032BD04460D4626
:102D800094F83C00012870472DE9F041DFF8FC720F
:102D9000D0F800C0DFF8F832DFF8F842DFF8F85278
:102DA000DFF8F862DFF8F8E2DFF8F882B84218BF1F
:102DB000B0F1804F04D040451CBF7045B0420DD1EA
:102DC0004A68B8422CF0700C18BFB0F1804F42EA4C
:102DD0000C0C0BD0404518BF704507D0B04218BF4F
:102DE000A84203D0A04218BF984204D1CA682CF46C
:102DF000407C42EA0C0C4A692CF0800C42EA0C023E
:102E00000260B8428A68C26218BFB0420A68826231
:102E100004D0A8421CBFA042984201D109690163B5
:102E200001224261BDE8F0812DE9F041026ADFF83C
:102E30005C82DFF868E2DFF85C72DFF85CC252089F
:102E400052000262066A44688569DFF85C220B68FA
:102E500026F0020615408A6816431D43404518BFF8
:102E600070458B4B04D060451CBFB84298420DD1D1
:102E7000CA6826F008061643404518BF704526F07C
:102E8000040605D0604518BFB84201D0984205D16C
:102E90004B698A6924F440741C431443446085617F
:102EA000496841630662BDE8F081F0B5026A22F02C
:102EB00010020262056A436884697C4A0E68144005
:102EC0008A6844EA062425F0200545EA02156F4E7B
:102ED000724AB04218BF904208D1CF6825F08005F1
:102EE00045EA0715B04225F040050AD090421CBFC4
:102EF000694A904205D0674EB0421CBF644A904276
:102F000006D14E698A6923F44063164343EA860377
:102F100043608461496881630562F0BDF0B5026A6F
:102F2000614B22F480720262066A4468C5690A68CD
:102F300026F400761D408B6846EA03261543534B62
:102F4000564A984218BF904208D1CF6826F40066CE
:102F500046EA0726984226F480660AD090421CBFB3
:102F60004D4A904205D04B4B98421CBF484A904274
:102F700006D14B698A6924F44054134344EA03148C
:102F80004460C5614968C1630662F0BD70B5026AFC
:102F900022F480520262036A4468C569434A00F021
:102FA0006DF823F4005343EA0233B0421CBF3B4A9E
:102FB000904207D0384EB0421FBF364A9042344E3E
:102FC000B04204D14A6924F4804444EA8214446043
:102FD000C56149680164036270BD70B5026A344B13
:102FE00022F480320262046A4568466D0A681E4017
:102FF00016438B68254A24F4003444EA0344904283
:103000001CBF264B984207D0234A90421FBF214B3A
:1030100098421F4A904204D14A6925F4803545EA16
:1030200002254560466549688165046270BD70B5DA
:10303000026A22F480120262036A4468456D1D4AE6
:1030400000F01CF823F4001343EA0253B0421CBF03
:10305000124A904207D0104EB0421FBF0D4A904214
:103060000B4EB04204D14A6924F4802444EA8224FD
:10307000446045654968C165036270BD0E681540CE
:1030800045EA06258A68014E70470000002C014081
:10309000004801400044014000400140003401402C
:1030A00000080040000400408CFFFEFFFF8CFFFE84
:1030B0008FFFFEFFFF8FFFFEF0B500F13C0422788A
:1030C000012A01D10220F0BD012222700223637087
:1030D0000668DFF8E8E07768DFF8D8C0B5687645BD
:1030E00018BF664503D14B6827F470071F430A6871
:1030F00027F07007174377600268724518BFB2F176
:10310000804F0AD02C4882421CBF2D4B9A4204D0DB
:1031100062451CBF2B48824204D1886825F0800597
:10312000054395600121617000202070F0BD30B52D
:1031300090F83C20012A01D1022030BD012280F804
:103140003C20CC688B684A6824F440741C4324F407
:10315000806414430B680A6924F400641C4324F45B
:10316000805414434B698A6A24F400541C4324F4A9
:10317000804414438B69114A24F4702444EA0344C4
:10318000036893421CBF0B4DAB420CD14A6A24F436
:10319000700444EA0254CA69096A24F08074144332
:1031A00024F000740C435C64002280F83C20002072
:1031B00030BD00000034014000040040002C0140FC
:1031C00000080040004001402DE9F04104000D4698
:1031D0001646984611D004F17407796821B9002089
:1031E00038702046FEF740FB2421796000F02FF86C
:1031F000204600F0E1F9012801D101201FE0606ABA
:1032000010B1204600F0BAFA2068816841F480418C
:1032100081602068816821F400410D438560206849
:1032200001686FF3194141EA465141EA08410160E2
:1032300000F007F82046BDE8F04100F002BBBDE811
:10324000F0812068016841F0010101607047206849
:1032500002685208520002607047704738B5040097
:1032600009D004F17405696809B900F01EF800F08E
:1032700021F8012801D1012032BD606A08B100F0B7
:103280002AF800F00AF821F02A01FFE7816000F037
:103290001BF8BDE8324000F0D4BA2068416821F440
:1032A0009041416020688168704700202870204666
:1032B000FEF7DABA242169602068026852085200D9
:1032C0000260204600F078B92068016841F00101F1
:1032D000016020467047204600F050BA2DE9FC47B7
:1032E000054605F17404884660682028174699460B
:1032F0004DD1B8F1000F14BF002F012048D0207825
:10330000012844D0012121700020E0602122626068
:1033100005F15006FDF7EAFB378082467780A86802
:10332000B0F5805F04BF286900280EBF47464046BD
:1033300000270021217080460FE018F8012B02853C
:1033400008E02868B8F1000FF7D137F8021BC1F385
:10335000080101857088411E718053467088CDF840
:103360000090002807D000228021284600F097FA1C
:103370000028E6D005E000224021284600F08FFA20
:1033800008B1032004E020206060002000E002205B
:10339000BDE8F687816821F0400181607047F8B58B
:1033A000044640F60F002368D9691A689E680840F1
:1033B00004F158050BD1880600D5970640F17C80B2
:1033C000E968002977D02046BDE8F4400847F007B7
:1033D00003D4DFF884733A426ED0C80707D5D70507
:1033E00005D501201862AB6A43F00103AB62880780
:1033F00008D5F30706D5276802203862A86A40F08E
:103400000400A862480708D5F30706D527680420FA
:103410003862A86A40F00200A86208070AD593063D
:1034200001D4F00706D5266808233362A86A40F065
:103430000800A862080509D5530107D526684FF48E
:1034400000603062A86A40F02000A862A86A0028E4
:1034500031D0880605D5910603D5E96809B1204623
:103460008847A86A21688A68510602D410F0280F9C
:103470001CD0204600F05AFA206881684A0610D510
:10348000FFF788FFA86960B10FF2D1414163A869D5
:1034900000F010FE00280ED0A869416BBDE8F44092
:1034A00008472046BDE8F24000F02CBE204600F060
:1034B00029FE0020A862F1BDA86801284ED1C806E7
:1034C0004CD5D7064AD5102018622268906841066C
:1034D00025D5A9690868406880B2002865D02B8886
:1034E000984262DA68808869202814D0116821F433
:1034F00080711160206881684908490081602068F6
:10350000FFF748FF202068620021A96000F04EF814
:10351000A86900F0AFFD29886888091A18E02B888F
:1035200069886888591A00281CBF88B200283CD0D6
:10353000106820F490701060206882685208520071
:103540008260202068620022AA60EA6000F02EF803
:103550002046BDE8F44089B200F0D5BDC80209D5C7
:10356000760207D54FF4801018622046BDE8F2407D
:10357000FFF773BE080607D5160605D52969A1B160
:103580002046BDE8F440084748060ED551060CD544
:10359000186820F04000186020212962002028616E
:1035A0002046BDE8F24000F0AFBDF1BD20680268E2
:1035B00022F010020260704770B504466748226826
:1035C0001368A168034020690B4361690343E06904
:1035D0000B430343136000255168E06821F4405118
:1035E000014351609368A169206A23F430630B435F
:1035F0005B4903438A4293605A480AD1006800F04D
:103600000300032815D8DFE800F00261754E0121A0
:1036100010E055498A4236D1006810F4403067D036
:10362000B0F5803F52D0B0F5003F63D0B0F5403FD9
:1036300039D01021E3694D48B3F5004F4FF6F076CD
:103640004FF4004260D141B1012955D0022908D080
:10365000042954D0082955D078E0FEF765FC0028ED
:1036600075D061684A0802EB4002B2FBF1F080B20B
:10367000A0F11001B14269D20640C0F342000643F6
:103680002068C66063E03A498A420ED1006810F4AF
:1036900040202DD0B0F5802F18D0B0F5002F29D0C4
:1036A000B0F5402FC5D10221C4E732498A420FD17B
:1036B000006810F440101BD0B0F5801F06D0B0F5A4
:1036C000001F17D0B0F5401FEDD0B2E70421B1E7DD
:1036D00029498A42ADD1006810F4400008D0B0F505
:1036E000800FF3D0B0F5000F04D0B0F5400FEBE73A
:1036F00000219FE708219DE7FEF71EFCAFE7FEF7DC
:10370000F5FBACE71046ACE741B1012916D0022920
:1037100007D0042915D0082916D017E0FEF704FCBD
:10372000A8B1616800EB5100B0FBF1F080B2A0F1EC
:103730001001B1420AD22268D06008E0FEF7FCFB1B
:10374000EEE7FEF7D3FBEBE71046EAE701250020A2
:103750006066A066284670BD20010004F369FFFF83
:1037600000380140301002400044004000127A004E
:1037700000480040004C00400050004090F82410E9
:10378000CA0706D502685368816A23F400330B43E5
:10379000536090F824108A0706D502685368C16AFE
:1037A00023F480330B43536090F824104A0706D566
:1037B00002685368016B23F480230B43536090F835
:1037C00024100A0706D502685368416B23F40043AE
:1037D0000B43536090F82410CA0606D5026893681C
:1037E000816B23F480530B43936090F824108A0676
:1037F00006D502689368C16B23F400530B439360B2
:1038000090F824104A0610D502685368016C23F41E
:1038100080130B435360036CB3F5801F05D15368CD
:10382000416C23F4C0030B43536090F824100A0644
:1038300006D501684A68806C22F4002202434A607F
:103840007047F8B5044604F174050020E8606FF095
:103850007E47FDF74BF90646206801680A0708D540
:103860000097334600224FF40011204600F017F86D
:1038700060B9206801684A070AD5009733460022DC
:103880004FF48001204600F00AF808B10320F2BD91
:1038900020206860A860002020662870F2BD2DE915
:1038A000F041069C05460E4690461F462868C169B1
:1038B0003140B1420CBF01200020404529D114F114
:1038C000010FF3D0FDF712F9C01B844200D35CB99D
:1038D0002868016821F4D071016000F01CF8002113
:1038E00001700320BDE8F081286801684A07DDD532
:1038F000C1690A05DAD54FF40061016228680268DF
:1039000022F4D0720260002200F005F8C16002705B
:10391000E7E70020E6E728688168490849008160F8
:1039200005F17400202141608160704701680A68D8
:1039300022F490720A6001688A68520852008A6014
:10394000016E012904D101680A6822F010020A60A0
:103950002021C1670022026642667047406A00F17A
:10396000520100220A810A8000F0CCBB4AB100005B
:1039700011F8013B521E00F8013B1CBF11F8013B3E
:10398000F8E7704738B50446FDF7B0F814F1010FB9
:10399000054602D0044801786418FDF7A7F8401BDB
:1039A000A042FAD331BD00BF5802002070B51446C2
:1039B0001A460B0023D0F82921DA3F4D2970F0B9BF
:1039C0003E483F49049B3F4EE86029616E623E4895
:1039D0003E49A86069610020A8613D493D482862D0
:1039E000E9612146287800F091FB040008D100F03D
:1039F000CDFC00280EBF03240120687000E00224E3
:103A0000204670BD38B52C4D68780024012803D1BC
:103A1000E86880476C7000E00624204632BD7CB523
:103A2000254C607808B1062076BD684600F0B9FCE8
:103A300001283ED19DF80000012802D0022811D0B3
:103A400037E06369221D04F12801A01C984780BB60
:103A5000A0782178884218BF00282AD1022000F0DF
:103A60009AFC26E0A26A1C4E1378E3700120002520
:103A700016F8351059B1994203D06D1C102DF7DBA3
:103A800005E01046321D211D52F835309847A178C7
:103A900079B1010008D0E178A26A41F0800111708B
:103AA000A16A48700220A080A288A16A2078A36839
:103AB0009847002076BD00009C0100204741000887
:103AC0005D410008DD420008C7410008714100085F
:103AD0001942000879420008C8010020F0B585B0FD
:103AE00050260B9D25B986F3118800F011FAFEE7E8
:103AF0000C9C24B986F3118800F00AFAFEE75427DB
:103B00000097009F542F04D086F3118800F000FA2C
:103B1000FEE725630026022584F8515004AF0A9D74
:103B2000039602940197009500F034F8204600F0C7
:103B30006DF8049805B0F0BD2DE9F8430646174628
:103B400084B088469946B80000F038FC05001CD0C7
:103B5000542000F033FC040014D00020256384F8C6
:103B60005100039002940D980C99019000914B46DE
:103B70003A464146304600F00DF8204600F046F83F
:103B8000012004E0284600F0A2FC4FF0FF3005B011
:103B9000BDE8F0832DE9F0470A9E8146306B00EBCB
:103BA0008202101FC0084FEAC00A00228C5CB018C5
:103BB00080F83440885C10B1521C102AF6D3089D5E
:103BC000002086F84300062D099C88BF062506F1D3
:103BD0004407F5623D6078609846301D00F0D5FCE2
:103BE00006F1180000F0D1FC3661C5F10705B5619A
:103BF00076620020B860387342464946504600F06D
:103C000001FD306004B12660BDE8F0872DE9F04188
:103C100000F067F8DFF8B453DFF8C883E86C401CA5
:103C2000E8641426A86A28BBAC62E86C012829D194
:103C3000002706FB07F0404400F09AFC7F1C072F8A
:103C4000F7D305F1740000F093FC05F188073846BE
:103C500000F08EFC284600F08BFC05F1140000F00B
:103C600087FC05F1380000F083FC05F17400E86280
:103C70002F6307E0A86D28B9E06AA96ACA6A904272
:103C800028BFAC62A86E401CA86600F093F94643BA
:103C9000211D08EB060000F07BFC00F040FDA86D44
:103CA00030B100F03AF903D200F095F900F030F9A4
:103CB000BDE8F08180B588B1DFF81023116F21B124
:103CC00000F03CF800F024F9FEE7116F491C116781
:103CD000002100F089F900F03BF808B900F013F971
:103CE00001BD044600F002BD80B586B000210591FB
:103CF000049103AA04A905A8FDF71CFE05980499E0
:103D000002900022009201910023039A0FF24C319D
:103D10000FF21120FFF7E2FE70B100F00FF800F093
:103D2000F7F8DFF828034FF0FF31C1660122826502
:103D30000021016500F088FC07B000BD502080F331
:103D400011887047DFF80403016F491C0167704751
:103D500070B5DFF87862306F0024002520B900F0DC
:103D600043F800F0D5F8FEE700F0C0FC306F401ECD
:103D70003067306F002836D1F06CD8B933E0F06886
:103D8000C46800F035F800F012F9E06A716DDFF8F0
:103D9000B832012282401143716514225043211D23
:103DA000184400F0F5FBE06AB16ACA6A904224BF89
:103DB0000121316630680028E1D10CB100F0EAF849
:103DC000F46D3CB100F018F808B101203066641EB3
:103DD000F8D1F565306E30B1DFF874124FF08050D5
:103DE000012500F094F8ECE0502181F31188704730
:103DF00004F1180000F0F2BB2DE9F843DFF8CC71B4
:103E0000386F002600284ED13C6D641C3C6510D1F3
:103E1000F86A006820B1FFF7E7FF00F079F8FEE7E5
:103E2000F86A396BF9623863786E401C786600F086
:103E3000B1F8F86EDFF8109284424FF0140828D3DE
:103E40001AE0281D00F0CAFBA86A18B105F1180095
:103E500000F0C4FBE86A796D012282401143796564
:103E600008FB00F0291D484400F092FBE86AB96A9B
:103E7000CA6A904228BF0126F86A006830B1F86A21
:103E8000C168CD6868688442DBD201E04FF0FF3042
:103E9000F866B86AC06A08FB00F059F800100229F9
:103EA00004D3012602E0F86D401CF865386E00B1BD
:103EB00001268DE0DFF81421106F10B10121116689
:103EC000704710661421506DB0FA80F3C3F11F03E0
:103ED0004B43DFF87411C85838B9502181F3118869
:103EE000BFF34F8FBFF36F8FFEE7C81800F10803D1
:103EF000416849684160994204BF4968416040682F
:103F0000C16891627047DFF848114FF08050086037
:103F1000BFF34F8FBFF36F8F7047A86AC16AE06A23
:103F20008142704770B5DFF8BC40DFF8205111E0E6
:103F300000F0DCFB286AC668301D00F04FFBE86C1F
:103F4000401EE864686B401E686300F0E8FB304682
:103F500000F009F8686B0028EAD121680229F9D33A
:103F6000FFF7D1FFF6E710B5044694F8510040B9C9
:103F7000206B00F0ACFA2046BDE8104000F0A7BA74
:103F800010BD0128F7D00228FAD0FFF7D7FEFFF7BF
:103F9000BFFFFEE70D49C86A006810B94FF0FF3255
:103FA00003E0C86AC268D0684268CA667047201DCC
:103FB00000F014BB0122E06A696D8240114369651B
:103FC000704700F0ACFB284670BD0000D4550020BF
:103FD0003046BDE8F2831E4A4FF0805111607047B1
:103FE0000000000070560020F8B5184D2F6D0C46EB
:103FF000A96A0646081D00F0F1FA30B9A86A696D91
:10400000C06A012282409143696516F1010F05D112
:1040100024B1A86A011D05F138001BE0A86AF61951
:104020004660BE42A86A05D2011D286BBDE8F44077
:1040300000F0BBBA011DE86A00F0B7FAE86E8642EC
:1040400038BFEE66F1BD000070560020D455002048
:1040500004ED00E0BDE8F44000F09ABA49444C4554
:104060000000000070477047704770477047704706
:104070007047000010B590F82110022900F13802B5
:1040800006D004231360002180F82010012010BD09
:1040900000F030F80C68640864000C6091685268A5
:1040A0008B4053600121002280F8211080F82020ED
:1040B000002010BD38B590F821100024022900F12D
:1040C000340203D004205060012411E000F012F803
:1040D0000D686D086D000D60D16895688B406B6050
:1040E000012180F8211080F82040116801B1884733
:1040F000204632BD01680B6823F00E030B600123DC
:1041000001687047704770477047000038B508462F
:104110001446002572B60822214600F067FB0128EC
:104120000DD144F6013084422FBF23207F48640024
:10413000B0FBF4F080B200F091FB012800D0032521
:1041400062B6284632BD80B572B679490020487003
:1041500000F0C0F800F0A6FB62B601BD80B572B6F3
:104160000021002000F02AFB00F0A2FB62B601BD96
:104170002DE9F843064689469046002472B66C4DF8
:10418000A888B0F5807F06DBA1226A496BA000F009
:104190009BFBAFF30080A88804280FDB664FA9883B
:1041A000384600F0A3FB48B938783070781CA988ED
:1041B000CA1EA8F80020C9F8000000E0052462B675
:1041C0002046BDE8F28370B5002472B6584D6B7876
:1041D000012B1CD14B1EAB60012169801870184661
:1041E0006E8892196A80698800F080FB69884A1C91
:1041F0006A80514A5054000A69884B1C6B805054A5
:10420000012101202870002000F0D8FA00E00524E8
:1042100062B6204670BD00001CB5454C207830B118
:10422000EB2244494BA000F04FFBAFF300806846FF
:1042300000F009FB61784048032914D8DFE801F059
:10424000110208110022A28000F00FF8022007E0FE
:10425000A188B1F5807F02DA00F007F801E00320C1
:10426000607000F01FFB002016BDA1884A1CA280D0
:104270009DF800304354704738B52D4D68780024C0
:10428000012808D04FF49372DFF8A81038A000F08E
:104290001BFBAFF30080287810B1012803D017E092
:1042A00000F018F814E0688850B1A868007800F0B1
:1042B000BEFAA868411CA9606888411E698007E0B1
:1042C000032000F068F8044600F004F8002028708D
:1042D000204632BD0021012000F070BA38B5144DDF
:1042E0006978002421B1022904D0032918D006E0FE
:1042F000002000E0012000F04EF8044610E068784D
:1043000000281FBF687802286878032808D0094968
:104310004FF4B07201F14C0000F0D6FAAFF3008018
:1043200000F0C6FA01206870204632BDA07F170059
:10433000D85C0020AC4E0008D45400207573526342
:1043400076427566666572506F73203C2032353652
:104350000000000065536E645374617465203D3D38
:104360002053544154455F54585F49444C45000024
:10437000655263765374617465203D3D205354410A
:1043800054455F52585F49444C4500000A4900209B
:104390004870012070470849087001224A700120C6
:1043A0007047054B59780246002021B118781070EB
:1043B0000021597001207047D65C00202DE9F84398
:1043C0000446FFF7BFFC694FB8684FF000090025AD
:1043D00008BB07F1180307F1180113F0070F4FF49A
:1043E000A0400A4605D0CA1DD208D200C2F5A0409E
:1043F000081880180838C008C0003A607D60B860AE
:1044000045600560831A5360106050683861F86039
:104410004FF0004078614FF050087869044246D16F
:10442000002C44D0083414F0070F1FBF04F108001B
:1044300004F00704041B14F0070F02D000F040F84A
:10444000FEE7A4B3F868A04231D33E68394601E0E4
:10445000314606467068A04202D230680028F7D183
:10446000B868864223D00A683068086002F10809FB
:104470007268121B112A0CD3311911F0070002D0F7
:1044800000F01EF8FEE7301D02517460084600F08F
:1044900048F87168F8683A69401AF860904238BF85
:1044A0003861786901437160356009F00705FFF7ED
:1044B0004FFC15B100F004F8FEE74846BDE8F28372
:1044C00088F31188BFF34F8FBFF36F8F70470028B9
:1044D00000D1704738B5A0F10804244D61686A69BD
:1044E0005023114202D100F015F8FEE7206810B108
:1044F00000F010F8FEE791436160FFF723FCE968E4
:1045000060684118E960204600F00BF8BDE83140D2
:10451000FFF71EBC83F31188BFF34F8FBFF36F8F7C
:10452000704730B511490A4600E01A4613688342C5
:10453000FBD35368D418844203D14068C318536036
:10454000104643681468C518A54208D189688C4292
:1045500004D06168CB184360246800E00C46046016
:10456000824218BF106030BD0000000068020020C9
:104570004FF0FF3200F1080182604160C16000F13C
:10458000080202610021016070470021016170474B
:1045900010B542684A6093688B609468616091606E
:1045A00008610168491C016010BD30B50A6812F14C
:1045B000010F08BF036907D000F1080300E023469C
:1045C0005C682568AA42FAD25A684A6091608B609A
:1045D000596008610168491C016030BD4368016988
:1045E00082689A60836842685A604A68824204BF5F
:1045F00083684B60002202610868401E08600868FA
:1046000070470000490810B54900A0F120034FF0A1
:10461000807499611A60DC616FF002020FF20D0183
:10462000596140F8242D203810BD00004E494A68D9
:10463000502012F1010F80F31188BFF34F8FBFF3A9
:104640006F8F00D0FEE7FEE77CB5484A484B106804
:104650005021984202D100F095F8FEE71068454BD2
:10466000984202D100F08EF8FEE7434B1C7801948B
:10467000FF251D7007251E783B4C8DF800609DF8C6
:104680000000A56000F05000207006E0401EA06011
:104690009DF8000040008DF80000A0689DF80050D3
:1046A0002E06F3D4C0F10705042D02D000F06AF8FD
:1046B000FEE7000200F4E060A06001981870116A43
:1046C00041F470011162106A40F07040106200F015
:1046D00061F80020606000F06BF92848016841F043
:1046E0004041016000F054F9002076BD502080F375
:1046F0001188BFF34F8FBFF36F8F1B494A68521C5D
:10470000012A4A600AD11E490A68130606D080F3BE
:104710001188BFF34F8FBFF36F8FFEE770471249C9
:10472000486838B9502080F31188BFF34F8FBFF32A
:104730006F8FFEE7401E486008BF80F31188704706
:1047400080B5502080F31188BFF34F8FBFF36F8F78
:10475000FFF752FB18B10A494FF080500860002261
:1047600082F3118801BD00004802002000ED00E046
:1047700071C20F4170C20F4100E400E034EF00E06D
:1047800004ED00E081F31188BFF34F8FBFF36F8F0B
:10479000704700000748084B0021016081604FF41A
:1047A0007A721968B1FBF2F2521E42600721016071
:1047B000704700BF10E000E064020020254A136843
:1047C0001A6820B1106840F02000106003E0136800
:1047D00023F02003136021B1106840F080001060C6
:1047E0007047116821F080011160704780B5194849
:1047F000194A0068026041600021C1604FF4805195
:104800001BB1022B08D003D30AE00021816006E02F
:1048100081604FF4C06102E081604FF4806101610A
:10482000FEF71CFD08B1FCF7F7F9012002BD01B548
:10483000084800680A2301226946FEF74FFD401E22
:104840008041C00F02BD03490A681368998C01704A
:104850000120704754020020003801403EB5054653
:10486000154C16482060FDF75FFB1549B0FBF1F1D0
:10487000491E00206160A06031211248E16005807E
:104880002046FEF7B3F808B100203EBD202100917C
:104890000022029269462046FEF70EFC401E80412F
:1048A000C00F3EBD0748018841800348FEF7ABB802
:1048B0000148FEF7E2B80000385B0020001000401D
:1048C00040420F00F05C002000B583B000910192DF
:1048D00002906A4604491820ABBE002801D100F0BE
:1048E00075F803B000BD00BF1010020030B50246DD
:1048F000FF23FF20084C07E012F8015B4540605D94
:104900005840631993F800310D46691EADB2002D71
:10491000F2D140EA032030BDE8490008EFF30980F6
:10492000BFF36F8F264B1A681EF0100F08BF20EDE3
:10493000108A20E9F04F106009B44FF0500080F366
:104940001188BFF34F8FBFF36F8FFFF7B3FA4FF0AC
:10495000000080F3118809BC19680868B0E8F04FBE
:104960001EF0100F08BFB0EC108A80F30988BFF367
:104970006F8F7047124B19680868B0E8F04F80F3EA
:104980000988BFF36F8F4FF0000080F311887047E4
:104990000C480068006880F308884FF0000080F33E
:1049A000148862B661B6BFF34F8FBFF36F8F00DF1D
:1049B000DFF81400016841F47001016070470000E5
:1049C000FC55002008ED00E088ED00E0012000F03B
:1049D00001B8000080B5AFF30080024A1100182032
:1049E000ABBEFBE72600020000C1814001C0804150
:1049F00001C0804100C1814001C0804100C18140AF
:104A000000C1814001C0804101C0804100C181409E
:104A100000C1814001C0804100C1814001C080418E
:104A200001C0804100C1814001C0804100C181407E
:104A300000C1814001C0804100C1814001C080416E
:104A400001C0804100C1814000C1814001C080415E
:104A500001C0804100C1814001C0804100C181404E
:104A600000C1814001C0804101C0804100C181403E
:104A700000C1814001C0804100C1814001C080412E
:104A800001C0804100C1814000C1814001C080411E
:104A900001C0804100C1814001C0804100C181400E
:104AA00000C1814001C0804100C1814001C08041FE
:104AB00001C0804100C1814001C0804100C18140EE
:104AC00000C1814001C0804101C0804100C18140DE
:104AD00000C1814001C0804100C1814001C08041CE
:104AE00001C0804100C1814000C0C101C30302C2B6
:104AF000C60607C705C5C404CC0C0DCD0FCFCE0E1E
:104B00000ACACB0BC90908C8D81819D91BDBDA1A8D
:104B10001EDEDF1FDD1D1CDC14D4D515D71716D6FD
:104B2000D21213D311D1D010F03031F133F3F2326D
:104B300036F6F737F53534F43CFCFD3DFF3F3EFEDD
:104B4000FA3A3BFB39F9F83828E8E929EB2B2AEA4D
:104B5000EE2E2FEF2DEDEC2CE42425E527E7E626BD
:104B600022E2E323E12120E0A06061A163A3A2622D
:104B700066A6A767A56564A46CACAD6DAF6F6EAE9D
:104B8000AA6A6BAB69A9A86878B8B979BB7B7ABA0D
:104B9000BE7E7FBF7DBDBC7CB47475B577B7B6767D
:104BA00072B2B373B17170B05090915193535292ED
:104BB00096565797559594549C5C5D9D5F9F9E5E5D
:104BC0005A9A9B5B99595898884849894B8B8A4ACD
:104BD0004E8E8F4F8D4D4C8C44848545874746863D
:104BE000824243834181804038B5098800240529E9
:104BF00010D14578817841EA0521491C0123012221
:104C000089B2C01CFCF702FF010004D000F0AEF82E
:104C1000044600E00324204632BDF8B50D460026C8
:104C2000298805291FDD41788478C27844EA012467
:104C30000179641C51EA0221427914D0792912DAEF
:104C40004F00FFB2BA420ED10A460123A1B2801D25
:104C5000FCF7DCFE010003D000F088F8064603E014
:104C60000520288000E003263046F2BDF8B50D4649
:104C700000262988052924D142788178047941EADF
:104C80000221491CECB17E2C1BDA2E800323037019
:104C900062002F887F1C2F80427000232F887F1C8A
:104CA0002F80224689B2801CFCF7B0FE010003D0A1
:104CB00000F05CF8064605E0288800EB44012980F6
:104CC00000E003263046F2BD2DE9F0410D460746CF
:104CD00028880026092845DD7878B9783C79FA7962
:104CE00041EA002000F10108F878B97944EA00248B
:104CF000787941EA0021387A40EA02207A7A491C20
:104D00007CB37E2C2DDA60B37A282ADA43009342F2
:104D100027D10246012389B207F10A00FCF776FE8B
:104D2000010018D12E801721397060002A88521C8A
:104D30002A80787000232988491C298022461FFA7E
:104D400088F1B81CFCF762FE010004D1288800EB52
:104D50004401298006E0010004D000F007F806466F
:104D600000E003263046BDE8F081000048B101288C
:104D700002D0072802D003E00220704706207047C7
:104D800004207047F8B50D460026298805292AD148
:104D900000F083F851EA022125D0B1F5FA6F22DA4A
:104DA0002E80012303708A082F887F1C2F8001EB3F
:104DB0005277FF0811F0070F18BF7F1C47700023C0
:104DC0002A88521C2A80801C0A46A1B2FCF720FEC9
:104DD000010003D0FFF7CAFF064605E0288850FA15
:104DE00087F0288000E003263046F2BD38B50988F8
:104DF0000025052921D14178847844EA01240179EC
:104E0000641CD1B9C178FF2918BF002915D18DF8CC
:104E10000150C078FF2806BF01218DF800108DF8E1
:104E2000005001230122A1B26846FCF7F1FD010008
:104E300004D0FFF79BFF054600E00325284632BD5E
:104E4000F8B50D4600262988052923DD00F025F850
:104E500041EA02218B0801EB5373DB08427911F020
:104E6000070F18BF5B1CA9B140F2B177B94211DA44
:104E7000DBB293420ED10A460123A1B2801DFCF79A
:104E8000C7FD010003D0FFF771FF064603E00520D0
:104E9000288000E003263046F2BD41788478C2784D
:104EA00044EA01240179641C70470000443A5C52D2
:104EB0006164696F5C4A6F62655C4C454420447272
:104EC000697665725F76325C70726F675C4D69649B
:104ED000646C6577617265735C54686972645F5075
:104EE000617274795C6D6F646275735C7274755C09
:104EF0006D627274752E6300282065526376537458
:104F0000617465203D3D2053544154455F52585FC4
:104F1000494E49542029207C7C2028206552637604
:104F20005374617465203D3D2053544154455F5294
:104F3000585F5243562029207C7C202820655263EC
:104F4000765374617465203D3D2053544154455F50
:104F500052585F4552524F5220290000F8B50C4676
:104F60000025218805292ED141788378C27843EA2B
:104F7000012301795B1C51EA022124D0B1F5FA6FBB
:104F800021DA2580022606708A08278801EB5276EE
:104F9000F6087F1C11F0070F278018BF761C46709B
:104FA0000A4627887F1C278099B2801CFCF732FDB7
:104FB000010003D0FFF7DAFE054605E0208850FA2D
:104FC00086F0208000E003252846F2BDF8B50D46A6
:104FD00000262988052926D142788178047941EA7A
:104FE0000221C278491C54EA02241CD07D2C1ADA12
:104FF0002E800423037062002F887F1C2F80427054
:1050000022462B885B1C2B8089B2801CFCF7FCFCA1
:10501000010003D0FFF7AAFE064605E0288800EB52
:105020004401298000E003263046F2BD30B5016816
:1050300084684218416802EB5103C90703D54C4408
:1050400001E0491C05D19A420AD012F9011B12F85D
:10505000015B002904F8015BF3D4491EF7D5F2E7A0
:105060000C3030BD0448054A016841F4700101600C
:105070004FF000601060704788ED00E008ED00E040
:1050800000000000000000000102030406070809F8
:1050900010B5074979441831064C7C44163404E0B5
:1050A0000A68081D114488470146A142F8D110BD85
:1050B0002C000000480000004EF68851CEF200019E
:1050C000086840F470000860BFF34F8FBFF36F8F24
:1050D0004FF00070E1EE100A7047000053BBFFFF75
:1050E0008C5A0000680200200000000041FFFFFF12
:1050F000BC010000F40000000000002038B50C46A0
:1051000005490D8C2A46401CFEF730FC6D1C25809D
:10511000002032BD00000000B45C00207047FEE7B4
:10512000FEE7FEE7FEE770470248FEF738B902489F
:10513000FDF7F2BCFC560020BC59002000F00DF831
:10514000002801D0FFF7A4FFAFF300800020AFF3E9
:105150000080FBF7D1FC00F002F80120704700F05E
:1051600001B8000007463846FFF734FCFBE70000B3
:1051700001488047014800476550000899510008E0
:105180004D61696E5461736B000000004D6F6442A5
:1051900075735F5461736B00AFF30080FFF78CFF92
:1051A000FFF7CCFF0000000001020304FFF7FEBF81
:1051B000FFF7FEBFFFF7FEBFFFF7FEBFFFF7FEBF23
:1051C000FFF7FEBFFFF7FEBFFFF7FEBFFFF7FEBF13
:1051D000FFF7FEBFFFF7FEBFFFF7FEBFFFF7FEBF03
:1051E000FFF7FEBFFFF7FEBFFFF7FEBFFFF7FEBFF3
:1051F000FFF7FEBFFFF7FEBFFFF7FEBFFFF7FEBFE3
:10520000FFF7FEBFFFF7FEBFFFF7FEBFFFF7FEBFD2
:10521000FFF7FEBFFFF7FEBFFFF7FEBFFFF7FEBFC2
:10522000FFF7FEBFFFF7FEBFFFF7FEBFFFF7FEBFB2
:10523000FFF7FEBFFFF7FEBFFFF7FEBFFFF7FEBFA2
:10524000FFF7FEBFFFF7FEBFFFF7FEBFFFF7FEBF92
:10525000FFF7FEBFFFF7FEBFFFF7FEBFFFF7FEBF82
:10526000FFF7FEBFFFF7FEBFFFF7FEBFFFF7FEBF72
:10527000FFF7FEBFFFF7FEBFFFF7FEBFFFF7FEBF62
:10528000FFF7FEBFFFF7FEBFFFF7FEBFFFF7FEBF52
:10529000FFF7FEBFFFF7FEBFFFF7FEBFFFF7FEBF42
:1052A000FFF7FEBFFFF7FEBFFFF7FEBFFB0003C225
:1052B00001000D810081008100E9000002D600009C
:1052C00011FD0004FD50000804FD0004CD4F00084E
:1052D00003FD00046D4C000810FD00041B4C000889
:1052E00006FD0004E94B000817FD0004C94C000846
:1052F00001FD0004854D000805FD0004ED4D00088A
:105300000FFD0004414E000802FD00035D4F000840
:10531000CC00FCAAFC0004FC56002001F90000109F
:06532000FC0002127A00FD
:040000050800519905
:00000001FF
