:020000040800F2
:1000000078610020BD3C0008553C0008573C0008C2
:10001000593C00085B3C00085D3C00080000000003
:100020000000000000000000000000002D3B000860
:100030005F3C000800000000D53A0008593A00086B
:10004000F93C0008FD3C0008013D0008053D0008A2
:10005000093D00080D3D0008113D0008153D000850
:10006000193D00081D3D0008213D0008253D000800
:10007000293D00082D3D0008313D0008353D0008B0
:10008000393D00083D3D0008413D0008453D000860
:10009000493D00084D3D0008513D0008553D000810
:1000A000593D00085D3D0008613D0008653D0008C0
:1000B000693D00086D3D0008713D0008753D000870
:1000C000793D00087D3D0008813D0008853D000820
:1000D000893D0008613C00088D3D0008913D000805
:1000E000953D0008993D00089D3D0008A13D000890
:1000F000A53D0008A93D0008AD3D0008B13D000840
:10010000000000000000000000000000B53D0008F5
:10011000B93D0008BD3D0008C13D0008673C00082E
:10012000C53D0008C93D0008CD3D0008D13D00088F
:10013000D53D0008D93D0008000000000000000087
:10014000DD3D0008E13D0008E53D0008000000003D
:10015000000000000000000000000000000000009F
:100160000000000000000000E93D0008ED3D00082F
:10017000F13D000800000000000000000000000049
:1001800000000000F53D0008F8B500260446009682
:100190000CB90120F2BD04F130052869C1064DD427
:1001A000286998BB6E61E8612873AE61204600F053
:1001B000C7FB20688168C80028D400F00DF9064606
:1001C0002869C10622D4300020D12869DFF8DC215B
:1001D000DFF8DC3120F4885040F00200286120680C
:1001E000816821F0405181602068816841F0805130
:1001F00081600A201168B1FBF3F34343009302E0EE
:100200000098401E009000980028F9D1206881686D
:10021000CA0002D58068810010D5286920F002004C
:1002200040F0100000F0BBF82869296921F00201B4
:1002300041F01001296101263046F2BD2869C1064E
:10024000F3D43000F1D1226890684107EDD42869D9
:10025000DFF86031DFF86071DFF8601120F4807042
:1002600040F002002861B2F1A04FDFF854010ED037
:10027000824208BF4FF0A04009D0BA42DFF84411D3
:1002800008BF184603D09A420CBF38460020D2F867
:1002900008C00CF0030CBCF1010F02D11268D207A8
:1002A0000ED438B1826802F00302012A02D100683C
:1002B000C20705D4086820F4403260681043086023
:1002C0006968607EE268012914BF4FF4805C4FF0DA
:1002D000000C4CEA40310A43A16841EA020C94F850
:1002E0002020012A0FD138B9606A401E400440F432
:1002F000803040EA0C0C06E0286920F0020040F053
:10030000200000F04CF8A16A2268012918D0BA42F6
:1003100018BF9A4210D1B1F5307F08BF4FF4E07199
:100320000AD0B1F5807F08BF4FF4307104D0B1F529
:10033000E07F08BF4FF48071E06A014341EA0C0C92
:10034000916811F00C0F0BD1D168DFF87C000140EF
:10035000D1602878217E400040EA813040EA0C0CD0
:100360002168DFF86800CA6802404CEA0200C860F1
:10037000216920680129016B05D1E2690909521E32
:1003800042EA011101E009090901016300206861E5
:10039000296921F0020141F0010129614CE728613E
:1003A000686940F001006861704700001800002093
:1003B00040420F00000500500004005008030050A8
:1003C0000001005008070050FDBFFFFF07C0F0FF0D
:1003D0000446206881687047204600F00ABA000091
:1003E0002DE9F8410A46002100F13C0400912578EE
:1003F000012D08BF022000F06781012323700368EC
:100400009D686E0700F15881576815681F26052FF3
:100410004FF0060C0BD20CFB07F7D3F830C0BE40F0
:100420002CEA060605FA07F737431F631DE00A2F7B
:1004300008D27F1F17FB0CF7D3F834C000F054F933
:100440005D6312E00F2F08D20A3F17FB0CF7D3F8B9
:1004500038C000F049F99D6307E00F3F17FB0CF728
:10046000D3F83CC000F040F9DD6307250668B368A7
:1004700013F00C0F3ED1136897680A2B0DD30A3B7B
:1004800003EB430CD6F818E005FA0CF32EEA03034D
:1004900007FA0CF71F43B7610BE003EB430CD6F8E8
:1004A00014E005FA0CF32EEA030307FA0CF71F43D6
:1004B000776103685769DE68D2F810E0F6087600C5
:1004C00006F00606AEF1010E07FA06F6BEF1030FBE
:1004D000DFF8887332D8DFE80EF0020E1A26D3F860
:1004E0006080D2F800C007EA080747EA8C6700F08E
:1004F000F1F81E6645E0D3F864C0D2F800E007EAE0
:100500000C0747EA8E6700F0E5F85E6639E0D3F83D
:1005100068C0D2F800E007EA0C0747EA8E6700F0EF
:10052000D9F89E662DE0D3F86CC0D2F800E007EA57
:100530000C0747EA8E6700F0CDF821E01E6E00F050
:10054000D9F803D11E6E26F000461E6603685E6E63
:1005500000F0D0F803D15E6E26F000465E660368B8
:100560009E6E00F0C7F803D19E6E26F000469E6690
:100570000368DE6E00F0BEF803D1DE6E26F00046A2
:10058000DE6603689E6806F00306012E02D11E682F
:10059000F7073BD41668012707FA06F6D768012F3C
:1005A00006D0D3F8B05025EA0606C3F8B0601AE0CA
:1005B000D3F8B0703E43C3F8B0601768936806681C
:1005C0000A2F08D3093F07EB4707D6F818C000F0F9
:1005D00085F8B56107E07F1C07EB4707D6F814C024
:1005E00000F07CF87561036839481268B3F1A04FD8
:1005F00016BF8342DFF86852344D102A02D12E68AC
:10060000370203E0112A03D12E68F70159D404E020
:10061000122A56D12E68770253D4B3F1A04F0FD0CF
:10062000834208BF4FF0A0400AD0DFF83802DFF85D
:10063000D060834208BF304602D0B34218BF0020CA
:100640009E6806F00306012E02D11E68F70733D418
:1006500038B1866806F00306012E02D10068C6078D
:100660002AD4102A18D1B3F1A04F2AD12868DFF874
:10067000F82140F4000028600A201368DFF8EC51EC
:10068000B3FBF5F545430095009800281EBF009880
:10069000401E0090F8D114E0112A06D1B3F1A04F0A
:1006A0000FD1286840F0807004E0122A09D1286830
:1006B00040F48000286004E0606840F02000606042
:1006C0000121002020700846BDE8F2810807005093
:1006D000000100503E4346F000467047BD402CEA02
:1006E0000505BB401D437047BE402CEA0606BD40D1
:1006F00035437047176806F0F846B6EB876F7047CA
:1007000000050050F0B50368594E0022B3F1A04F28
:1007100007D1354600F13004277B012F0FD102208D
:10072000F0BDB34208BF4FF0A045F3D04D4D4A4C49
:10073000AB420CBF2546A342ECD00120F0BD0127FF
:1007400027739F687F0746D4AF687F0743D4B3F110
:10075000A04F16BFB342424E464E0B68464F0BB3F6
:10076000336894F800E023F4604C4B6843EA0C03D0
:1007700043EA4E3333600068836800F036F802D1F4
:100780000068C3072CD4A86800F00300012802D138
:100790002868C30724D43568086889682F40074350
:1007A0000F4316E0336823F46043336000688168C8
:1007B00001F00301012902D10068C10710D4A86823
:1007C00000F00300012802D12868C10708D430686E
:1007D0000740376004E0216941F0200121610122D6
:1007E000002020731046F0BD936803F00303012B33
:1007F000704738B5FFF7ECFD01F0030101291BD16B
:100800000168CA0718D5816801F00D01012912D1CC
:10081000816841F00201816003202168086000F0D6
:1008200051F9054620688168C80705D500F04AF9E6
:10083000401B0328F6D301E0002032BD00F001F890
:1008400032BD206C40F010002064606C40F001006C
:1008500060640120704700000005005000F0FF8335
:1008600008030050000400501800002040420F0010
:100870000001005008070050E0F0FFFF18B589B0F4
:100880000C22002106A800F023F900F01FF8814C8B
:100890004FF0A04000F03DF808B100F09DF90020B5
:1008A000069006A92046FFF72DFF08B100F094F945
:1008B00000F023F808B100F08FF90AB010BD10B5B0
:1008C00086B000F003F8744C74480AE01822002146
:1008D000684600F0FDB810B586B0FFF7F7FF704C22
:1008E000704800F016F808B100F076F900F005F84D
:1008F00008B100F071F906B010BD0121009101911D
:100900002046002103910291049105916946FFF769
:1009100067BD206000210120A062E061042204F193
:1009200030006160A1602161617684F82010E1628D
:10093000E16001706261217641602046FFF724BCCE
:1009400010B586B004461422FFF7C1FF56490A6865
:1009500023685648521CB3F1A04F28D100F07EF80E
:1009600042F400220260016801F40021059105991A
:10097000026842F480020260036803F48003059376
:100980000599026842F4003202600F2100F05FF81E
:10099000474800F071F8142000F075F8454800F061
:1009A00039F90F2000F06FF84FF090404BE03B4CCE
:1009B000A3420FD100F052F842F40032026030211D
:1009C00000F045F800910192002102914FF0904013
:1009D000694638E033498B4237D1026842F0005211
:1009E0000260016801F0005105910599026842F426
:1009F00000120260036803F400130593059902686E
:100A000042F480220260036803F480230593059971
:100A1000026842F4801202604FF44141006800F421
:100A20008010059003220598234800F025F84FF424
:100A3000504000F028F8214800F0ECF84FF4FE4058
:100A400000F021F81E4800F0E5F806B010BD00687F
:100A500000F400300590032205987047012A0A60CF
:100A600008D1016841F080510160026802F08052B3
:100A70000592059902687047009101920021029148
:100A8000694600F0C7B8032100900191002202924C
:100A90006946704780550020D05500200001005065
:100AA000205600200005005070590020141002400C
:100AB00000080048001400480010004800040048E6
:100AC000000C004801484068704700BF0C0000203F
:100AD00010B5044610460A460146204600F074F957
:100AE000204610BD80B500F079F900F027F800F03D
:100AF00087F9FFF7C3FEFFF7EEFE00F00BFA00F0F8
:100B000016FA00F024FA00F072FA00F096FA00F0FB
:100B100079FA00F033FDFFF7D2FE00F0C7FD00F0D8
:100B2000D6FD00F0E8FA00F033FB00F03DFB00F0EA
:100B30003DFD00F05DFE00F0A5FEFEE780B59EB035
:100B40002822002105A8FFF7C3FF142200216846D0
:100B5000FFF7BEFF3C2200210FA8FFF7B9FF4FF4BB
:100B600080310022069107920D9101200590099095
:100B700002224FF4E0110C920E9105A800F0BEFE87
:100B8000022101910F204FF4806100900022039117
:100B9000029204920221684601F038F80021119176
:100BA000129143F283104FF4807118910F904FF41B
:100BB0000052002119921B911C910FA801F018F905
:100BC0001FB000BD00680349884208BF01F0EAB9C0
:100BD0007047000000140040704730B4002513E057
:100BE00050F8042BD30744BFA9F101039A18091F39
:100BF000042942F8045BFAD213468C0744BF1580DF
:100C00009B1CC90748BF1D7050F8041B0029E7D181
:100C100030BC70472DE9F84F0027644A644B4FF011
:100C20000F0805460E4634E0624CA54214BF052469
:100C300004248C40604944EA0E0441F82C40C1432E
:100C4000146801EA040C7468E40348BF40EA0C0C21
:100C5000C2F800C0546801EA040C7468A40348BFD9
:100C600040EA0C0CC2F804C0946801EA040C7468F1
:100C7000E40248BF40EA0C0CC2F808C0D46801EA9C
:100C8000040C7168890248BF40EA0C0CC2F80CC021
:100C90007F1C316831FA07F000F080800124BC40ED
:100CA00014EA0100F4D04FEA470C032101FA0CF1D9
:100CB0006FEA010E7168012918BF022903D01129BA
:100CC00018BF122912D1A968D6F80C900EEA0101BA
:100CD00009FA0CF949EA0101A960696821EA0404EA
:100CE0007168C1F30011B9400C436C60E968B468E5
:100CF0000EEA010104FA0CF42143E960B9007468BA
:100D0000022C18BF122C12D1FC0805EB840401F050
:100D10001C09D4F820A008FA09FB2AEA0B0AD6F825
:100D200010B00BFA09F949EA0A09C4F820902C68B6
:100D30000EEA040E347904F0030404FA0CF444EAD5
:100D40000E042C607468E400A2D51C6844F0010411
:100D50001C604FEA970C1C6804F00104009401F039
:100D60000C01009C144C54F82C4008FA01FE24EAB3
:100D70000E0EB5F1904F08BF00240ED00F4CA542C7
:100D800008BF012409D00E4CA54208BF022404D09C
:100D90000C4CA5427FF448AF03244AE7BDE8F18F2D
:100DA0000AB1816170478162704700000004014010
:100DB00018100240001000480800014000040048DC
:100DC00000080048000C00484018491C1CBFB1F145
:100DD000010100F8012DF9D17047000080B50748E6
:100DE000016841F010010160032001F0F0F80020DB
:100DF00001F02CF901F066F9002002BD002002404C
:100E000070B586B0142200216846FFF761FE3748AE
:100E1000374C0168374D384E41F4001101600268CB
:100E200002F4001205920599026842F48002026001
:100E3000036803F4800300F061F842F400220260CA
:100E4000036803F4002300F059F842F40032026012
:100E5000036803F4003300F051F842F4802202608A
:100E6000036803F4802300F049F842F48012026022
:100E70000022006800F4801005904FF400410598AE
:100E80004FF09040FFF78CFF002284212046FFF7AF
:100E900087FF00224FF404712846FFF781FF0022EC
:100EA00001213046FFF77CFF4FF4004100F02AF8A3
:100EB0004FF09040FFF7AEFE842100F023F820466B
:100EC000FFF7A8FE4FF4047100F01CF82846FFF766
:100ED000A1FE012100910191304600210291039170
:100EE0006946FFF797FE06B070BD0000141002407F
:100EF000000C0048000400480010004805930599C4
:100F00000268704700910122002102910391019231
:100F10006946704718B595B000F014F800F062F813
:100F200000F0E4F8DFF8F445DFF8F40591E010B5DF
:100F30008AB000F007F800F055F8DFF8E8454FF008
:100F400080400EE00C2200216846FFF7C1BD10B5BD
:100F50008AB0FFF7F7FF00F045F8DFF8CC45DFF87F
:100F6000CC05206000216160A160E1602161A16188
:100F7000204601F021F908B1FFF72EFE0021009173
:100F800002912046694601F009FC08B1FFF724FEF2
:100F900060210391002204920592079203A9204642
:100FA00001F0DDF908B1FFF717FE042203A920467E
:100FB00001F0D5F908B1FFF70FFE082203A920467A
:100FC00001F0CDF908B1FFF707FE0C2203A9204676
:100FD00001F0C5F908B1FFF7FFFD204600F0AAF9BE
:100FE0000AB010BD1C22002103A8FFF771BD10B587
:100FF0008AB0FFF7A7FFFFF7F5FFDFF83445DFF80A
:101000003405AEE71FB5FFF79DFFDFF82C45DFF88D
:101010002C0500F00CF9A161204601F071F808B12F
:10102000FFF7DAFD0021009102912046694601F0A8
:10103000B5FB08B1FFF7D0FD1FBD18B595B0FFF7A0
:1010400081FFFFF7CFFF00F051F8DFF8F444DFF83D
:10105000F40400F092F808B1FFF7BEFD0020009004
:10106000019002906946204601F098FB08B1FFF715
:10107000B3FD6020002103900491002206910891A5
:1010800005920792099200F0D8F808B1FFF7A4FD85
:10109000042200F0D2F808B1FFF79EFD082200F00C
:1010A000CCF808B1FFF798FD0C2200F0C6F808B1A3
:1010B000FFF792FD00204FF400510A900B900C9026
:1010C0000D900E900F91109011904FF000721390B0
:1010D000149012920AA9204601F09BFB08B1FFF779
:1010E0007BFD204600F026F916B010BD2C22002111
:1010F0000AA8FFF7EDBC18B595B00C22002107A88F
:10110000FFF7E6FC1C22FFF71EFFFFF7EFFFDFF8FB
:101110003844DFF8380400F030F808B1FFF75CFD20
:10112000002107910991204607A901F037FB08B17A
:10113000FFF752FD602000210090019100220391F1
:101140000591029204920692694600F077F808B180
:10115000FFF742FD0422694600F070F808B1FFF77E
:101160003BFD00210A910B910C910D910E914FF4D2
:101170000052109114910F92ACE720600021616041
:10118000A160E16021616161A161204601F014B8B4
:1011900010B592B000F055F82C22FFF7D4FEDFF81E
:1011A000B043DFF8B0030AE010B592B000F049F8A0
:1011B0002C22FFF7C8FEDFF8A043DFF8A00300F001
:1011C00036F821616161A161204600F099FF08B104
:1011D000FFF702FD204600F0EFFF08B1FFF7FCFC2F
:1011E000602000210B900C9100220E9110910D9225
:1011F0000F9211920BA900F021F808B1FFF7ECFC57
:101200000021009101910291039104914FF4005249
:1012100006910A9105926946204601F0FAFA08B152
:10122000FFF7DAFC204600F085F812B010BD206010
:1012300000216160A160E160704703A9204601F0D0
:101240008EB81C2200210BA8FFF742BC81B00068B9
:10125000DFF8CC22DFF80813904207D1086840F489
:1012600000600860096801F4006137E0B0F1804F68
:1012700007D1486840F001004860486800F001006C
:1012800015E0DFF8A822904207D1486840F002003C
:101290004860486800F0020009E0A64A904208D180
:1012A000486840F004004860486800F0040000907E
:1012B00015E0A44A904207D1086840F40050086045
:1012C000096801F4005109E0A04A904208D1086879
:1012D00040F480300860096801F480310091009882
:1012E00001B0704781B00068944A9D49904208D18E
:1012F000486840F010004860486800F01000009016
:1013000015E0944A904207D1086840F40030086024
:10131000096801F4003109E0904A904208D1086858
:1013200040F480200860096801F480210091009851
:1013300001B0704738B586B004461422FFF703FEAB
:101340002268774B874888499A4220D10A6842F43C
:1013500000120A600B6803F400130593059A0B68EA
:1013600043F400330B604FF42852096801F4003154
:1013700000F0C0F8FFF74EFC0022029203924FF4F7
:10138000006002210B2200900191049299E0B2F1D9
:10139000804F764C764D21D1086840F4802008605B
:1013A0000A6802F48022059205980A6842F48012C5
:1013B0000A600222096801F4801105914FF440612E
:1013C00000F0A4F82846012104916946FFF722FCA9
:1013D0000022182000F085F8204675E0534B9A4211
:1013E0000AD10A6842F400120A603C22096801F43A
:1013F000001100F07FF867E04E48824222D10A686F
:1014000042F480120A60086800F480100590059884
:101410000A6842F480220A600222096801F48021ED
:1014200005914FF4004100F071F82046022104912B
:101430006946FFF7EFFB00224FF4E07000F051F82F
:10144000284641E03F48824210D10A6842F4002217
:101450000A600222086800F4002005904FF47071C1
:101460000598444800F053F8042112E037488242BE
:1014700012D10A6842F480020A600222086800F46D
:10148000800005904FF4C06105983B4800F03FF89C
:1014900003210491694617E02E48824203D100F0EF
:1014A00017F8402105E02D4882420FD100F010F8D6
:1014B000802105980091022200F02BF80192012171
:1014C000049169464FF09040FFF7A4FB07B030BD90
:1014D0000A6842F400320A60086800F4003005909F
:1014E000704702210292039200900191022204921D
:1014F00069467047059102230599009201930022E5
:101500000292039269460222049270470598009164
:10151000019200210291039170470000BC56002007
:10152000002C0140085700205457002000040040C0
:10153000A057002000080040EC5700200010004099
:1015400038580020003401408458002000400140F9
:10155000D0580020004401401C59002000480140A0
:10156000181002400010004814100240000C0048FF
:1015700000040048000800480014004880B54548B1
:10158000454901604FF416420C214260416100233D
:10159000002200218360C36002618261C161026236
:1015A000416201F083F900B116E001BD80B53B480E
:1015B0003B4901604FF4164200230C2142608360D6
:1015C000C360036141618361C3610362436201F0EF
:1015D000B7F900B100E001BDBDE80140FFF7FCBA7A
:1015E00010B586B00446142200216846FFF770FA51
:1015F0002068294A2B49904223D1486840F4804012
:101600004860486800F48040059005980A6842F4F4
:1016100000320A600222096801F4003105914FF49A
:10162000B051059800F02BF84FF09040FFF7F2FA18
:1016300000220521252000F0D7FC252000F0F1FC38
:101640001BE0174A904218D1886840F40030886047
:10165000886800F40030059005980A6842F480120A
:101660000A600222096801F4801105916021059841
:101670000D4800F004F8FFF7CDFA06B010BD009158
:1016800001920021029103220721049103926946ED
:1016900070470000B053002000380140345400204F
:1016A0000044004014100240000C004880B545483A
:1016B000454900F024F80821C16100230721C162D7
:1016C00000F015F800F023F800B127E001BD80B567
:1016D0003E483F4900F013F80721C162002300F0A3
:1016E00006F8C36100F013F800B117E001BD4FF434
:1016F0000072082183600361436182617047016069
:101700004FF482724FF44071C160426070470362CF
:10171000436283620363416301F03EBCBDE8014064
:10172000FFF75ABA10B586B0044614220021684665
:10173000FFF7CEF92068244A2649904218D148681C
:1017400040F480504860486800F480500590059847
:101750000A6842F480220A600222096801F48021AA
:101760000591282105981C4800F025F805211BE06B
:10177000174A90421DD1886840F40040886088680C
:1017800000F40040059005980A6842F400220A60BF
:101790000222096801F4002105914FF4E0510598F7
:1017A0000E4800F008F80621049103926946FFF7FD
:1017B00031FA06B010BD009101920021029103227E
:1017C00070470000B8540020003001401C55002034
:1017D000003C00401410024000040048000800488B
:1017E000104B036003F154000860802111607047C2
:1017F00010B58EB00DF11C0011A10B4C1C2201F094
:1018000045FC002107A800F042F820601C22684631
:1018100012A101F03BFC0021684600F038F860603E
:101820000EB010BD345000206859002080B5012052
:1018300000F05CF8FBE780B5012000F057F8FBE70B
:10184000CC3C00082D18000800000000000000003B
:10185000000200000000000000000000D83C00086A
:10186000371800080000000000000000000200001F
:10187000000000000000000001460020842918BF7D
:10188000C81C704780B501F013FD002002BD38B5BB
:10189000044684B0606900281CBFA06900280D467A
:1018A00012D0B4F90800FFF7E7FFA16902912B46B7
:1018B00062690192009022692168606801F0F2FB80
:1018C0000390039805B030BDB4F90800FFF7D4FFCA
:1018D00003A9019100902B4622692168606892B2A9
:1018E00001F00EFC0128ECD00020EBE780B500B938
:1018F000012001F0C3FC002002BD00002DE9F843E7
:10190000040019D02078DFF89854C10716D568680C
:1019100000F00C0004280AD0686800F00C000828C9
:1019200002BF686800F48030B0F5803F41D100F01C
:10193000E6F918B16068002800F05F812078DFF8D0
:10194000706481071BD5686810F00C0F07D06868B9
:1019500000F00C0008286CD16868C10369D42868BD
:10196000C0F3400000281CBF2069012840F04581D9
:101970002968606921F0F80141EAC00129602178F5
:10198000080740F18C80A069DFF82814002878D07F
:1019900001220A60FFF796F80746686AC0F3400024
:1019A00000287CD1FFF78EF8C01B0228F5D9032050
:1019B00026E16068B0F5803F04D1286840F48030AB
:1019C000286014E008B928680AE0B0F5A02F28685C
:1019D00006D140F480202860296841F4803105E078
:1019E00020F480302860296821F480212960E86A89
:1019F000A168000941EA0010E862606860B1FFF781
:101A000061F8064600F07BF9002897D1FFF75AF8F5
:101A1000801B6528F6D3CAE7FFF754F8064600F0A6
:101A20006EF900288AD0FFF74DF8801B6528F6D3A1
:101A3000BDE72069B0B101213160FFF743F80746E7
:101A40002868C0F3400028B9FFF73CF8C01B022803
:101A5000F6D9ACE72868616920F0F80040EAC100D7
:101A600028608CE73060FFF72DF807462868C0F340
:101A70004000002883D0FFF725F8C01B0228F5D9C5
:101A800095E70860FFF71EF80746686AC0F3400054
:101A900028B1FFF717F8C01B0228F6D987E720788E
:101AA000410763D5E8690027C10009D4E86940F01F
:101AB0008050E8610127E86900F0805000900098AC
:101AC000DFF8F482D8F80000C10513D4D8F800007C
:101AD00040F48070C8F80000FEF7F4FF8146D8F8A3
:101AE0000000C10506D4FEF7EDFFA0EB0900652854
:101AF000F5D35CE7E068012808D008B9286A09E056
:101B00000528286A06D140F004002862286A40F0BF
:101B1000010005E0400840002862286A20F0040027
:101B2000286241F28938E06868B1FEF7CBFF814650
:101B3000286AC0F34000A0B9FEF7C4FFA0EB09007B
:101B40004045F5D333E7FEF7BDFF8146286AC0F371
:101B5000400030B1FEF7B6FFA0EB09004045F5D3D9
:101B600025E71FB1E86920F08050E861E0690028AE
:101B700045D0696801F00C01082931D0022822D132
:101B800000F040F807462868C0F3406028B1FEF72F
:101B900099FFC01B0228F6D909E76868616A226AC2
:101BA00020F47410084310436860012000F02BF803
:101BB00004462868C0F3406008BBFEF783FF001BA3
:101BC0000228F6D9F3E600F01DF804462868C0F3B1
:101BD0004060A0B1FEF776FF001B0228F6D9E6E6CA
:101BE00001280AD06868226A00F48031914202BF5D
:101BF00000F47010616A884201D0012000E00020EA
:101C0000BDE8F28300203066FEF75CBF2DE9F041AD
:101C10000400884643D0694E00F06CF802D200F010
:101C200064F83CD120785E4D810705D56A68A068CC
:101C300022F0F00202436A602178C80727D5616864
:101C4000012902D100F05BF804E00229286803D1E1
:101C5000C0F3406018B922E0C0F34000F8B16868F2
:101C6000800841EA80016960FEF72CFF074668683A
:101C7000616800F00C00B0EB810F08D0FEF722FF86
:101C8000C01B41F289318842F1D303202BE0306838
:101C900000F00700804504D200F027F801D00120B1
:101CA00021E02078410705D56A68E06822F4E06207
:101CB00002436A602178080706D56968206921F423
:101CC000605141EAC001696000F01EF86A683C4951
:101CD000344BC2F30312895CC84018603348006873
:101CE00000F0B4F90020BDE8F0813168C90848EA85
:101CF000C1013160306800F0070040457047286836
:101D0000C0F340407047000010B52E490A6802F049
:101D10000C00082814D100BF2DA3C2F38340D203C6
:101D2000185C896A09D500BF2DA41F4B01F00F0173
:101D3000625CB3FBF2F2504310BD2349484310BD2F
:101D4000194810BD17481F4A006813681F49C3F39C
:101D5000022206E013481B4A006813681B49C3F3BC
:101D6000C222895CC840704710B50F220260154A34
:101D7000136803F003034360146804F0F004846004
:101D8000136803F4E063C3601268D20802F4E062EF
:101D900002610A48026802F007020A6010BD0000F2
:101DA000001002401800002000127A0014000020E9
:101DB0000000424280044242007000400020024085
:101DC000D83B00080410024000093D00F03C000828
:101DD00002030405060708090A0B0C0D0E0F10106C
:101DE0000102030405060708090A0B0C0D0E0F106B
:101DF0002DE9FC41054600242868DFF89C61C103F9
:101E000052D5B069C10009D4B06940F08050B061CA
:101E10000124B06900F0805000900098DFF87C71D8
:101E20003868C10511D4386840F480703860FEF716
:101E300049FE80463868C10507D4FEF743FEA0EB93
:101E400008006528F6D30320A4E0F06910F4407080
:101E50001EBF696801F4407188421AD0DFF8401152
:101E6000F06901220A60002320F440700B60F061E9
:101E7000C0070ED5FEF726FE0746F069C0F3400006
:101E800038B9FEF71FFEC01B41F289318842F4D3F6
:101E9000D9E7F269686822F440720243F2611CB12A
:101EA000B06920F08050B0612878C10705D5F26A8A
:101EB000A868920840EA8202F2622978880705D56C
:101EC000F16AE86821F440310143F162297848075A
:101ED00005D5F16A286921F440210143F16229788E
:101EE000880605D5F16AE86921F010010143F16225
:101EF0002968880305D53168A86B21F48001014366
:101F000031602978480605D5F16A286A21F0200158
:101F10000143F1622978080705D5F16A686921F45F
:101F200040110143F1622978C80605D5F16AA86914
:101F300021F440010143F1622968880505D5316823
:101F4000E86A21F40001014331602978080605D5CB
:101F5000B16A686A21F4F8710143B1622968C80561
:101F600005D5B16AA86A21F478510143B1622968A4
:101F7000C80405D5F16A286B21F480710143F16230
:101F80002968880405D5F16A686B21F40071014362
:101F9000F1620020BDE8F6810410024000700040AC
:101FA000400442420248416802788A184260704701
:101FB0000C0000200901020002D41F488154704720
:101FC0001E4B02F00F021A4402F8041C70471C4B0F
:101FD00019684FF6FF020002114000F4E060084368
:101FE000184908431860704770B5154B1C68C4F356
:101FF00002230124C3F10705052D2EBF0F2504FA86
:1020000005F56D1E1E1D072E34BF0023DB1E294063
:10201000994004FA03F3BDE870405B1E1A40114377
:10202000C8E7010007D4012200F01F01064B8A40D7
:10203000400943F82020704700E400E018ED00E07C
:102040000CED00E00000FA0500E100E018B50146E3
:1020500087B000223720FFF7C7FF3720FFF7E1FFE7
:102060001448154C016841F02001016001A9006885
:1020700000F020000090009802A8FFF775FEFFF71F
:1020800061FE0E49216040F2E73240000C49E260F7
:10209000B0FBF1F0401E606000222261A260204689
:1020A00000F02EF818B9204600F037F800E00120C3
:1020B00008B010BD1C1002407056002000140040F3
:1020C00040420F000D4882B0016841F001010160FB
:1020D000026802F0010200920099426842F08052C8
:1020E00042600022406800F0805000900F2100986C
:1020F0006FF0010002B0FFF777BF00BF1810024079
:1021000038B5040001D1012032BD00F073F818B9D0
:1021100000F06CF8FFF7E6F839E090F83D1001297F
:1021200001D001207047022180F83D100168CA6883
:1021300042F00102CA600168DFF89800814218BFCE
:10214000B1F1804F0FD0DFF8900081421CBFDFF863
:102150008C20914207D0DFF8880081421CBFDFF855
:10216000842091420DD18A68DFF87C000240062A63
:1021700018BFB2F5803F08D0086840F00100086041
:1021800003E00A6842F001020A6000207047022062
:102190006870211D206800F069F901202873A8707B
:1021A000E87028716871A871E87128726872A87265
:1021B000E8726870002032BD38B5040001D10120FA
:1021C00032BD00F017F818B900F010F8FFF73EF82C
:1021D000DDE70000002C0140000400400008004042
:1021E0000034014000400140070001000021297037
:1021F0002046704704F13C056878704710B50446E6
:10220000206801698A0715D5C1688A0712D56FF061
:102210000201016101222277806910F0030F20463C
:1022200002D001F003FA03E001F001FA00F094F8A3
:1022300000202077206801694A0715D5C1684A0740
:1022400012D56FF00401016102222277806910F437
:10225000407F204602D001F0E9F903E001F0E7F900
:1022600000F07AF800202077206801690A0715D568
:10227000C1680A0712D56FF00801016104222277B4
:10228000C06910F0030F204602D001F0CFF903E03F
:1022900001F0CDF900F060F8002020772068016996
:1022A000CA0615D5C168CA0612D56FF010010161C2
:1022B00008222277C06910F4407F204602D001F046
:1022C000B5F903E001F0B3F900F046F800202077FB
:1022D00020680169CA0708D5C168CA0705D56FF02B
:1022E000010101612046FEF76DFC206801690A06C4
:1022F00008D5C1680A0605D56FF080010161204646
:1023000001F096F920680169CA0508D5C1680A0676
:1023100005D56FF480710161204601F08AF92068CB
:1023200001694A0608D5C1684A0605D56FF0400123
:102330000161204601F07EF9206801698A060AD50C
:10234000C1688A0607D56FF0200101612046BDE80B
:10235000104001F070B910BD204601F06DB938B5DC
:1023600000F07EF801D1022032BD012084F83C004B
:1023700052B1042A19D0082A29D00C2A38D0102AA0
:1023800048D0142A57D067E0206800F0BFF82168D1
:10239000886940F008008861886920F0040088613D
:1023A0008A69286902438A6156E0206800F0EFF8E4
:1023B0002068816941F400618161816921F4806153
:1023C000816181692A6941EA0221816144E02068D2
:1023D00000F016F92168C86940F00800C861C869B2
:1023E00020F00400C861CA6928690243CA6133E069
:1023F000206800F03DF92068C16941F40061C161C5
:10240000C16921F48061C161C1692A6941EA02217F
:10241000C16121E0206800F052F92168486D40F068
:1024200008004865486D20F0040048654A6D286939
:1024300002434A6510E0206800F06BF92068416DA6
:1024400041F400614165416D21F480614165416D58
:102450002A6941EA02214165002084F83C0032BD2E
:1024600004460D4694F83C00012870472DE9F041E0
:10247000DFF8FC72D0F800C0DFF8F832DFF8F8427D
:10248000DFF8F852DFF8F862DFF8F8E2DFF8F882F8
:10249000B84218BFB0F1804F04D040451CBF704512
:1024A000B0420DD14A68B8422CF0700C18BFB0F1A0
:1024B000804F42EA0C0C0BD0404518BF704507D046
:1024C000B04218BFA84203D0A04218BF984204D11E
:1024D000CA682CF4407C42EA0C0C4A692CF0800C4F
:1024E00042EA0C020260B8428A68C26218BFB04277
:1024F0000A68826204D0A8421CBFA042984201D15F
:102500000969016301224261BDE8F0812DE9F041D2
:10251000026ADFF85C82DFF868E2DFF85C72DFF8FD
:102520005CC2520852000262066A44688569DFF89C
:102530005C220B6826F0020615408A6816431D438C
:10254000404518BF70458B4B04D060451CBFB84256
:1025500098420DD1CA6826F008061643404518BFB8
:10256000704526F0040605D0604518BFB84201D07A
:10257000984205D14B698A6924F440741C43144382
:1025800044608561496841630662BDE8F081F0B549
:10259000026A22F010020262056A436884697C4A7A
:1025A0000E6814408A6844EA062425F0200545EAAE
:1025B00002156F4E724AB04218BF904208D1CF68E0
:1025C00025F0800545EA0715B04225F040050AD000
:1025D00090421CBF694A904205D0674EB0421CBF72
:1025E000644A904206D14E698A6923F440631643D7
:1025F00043EA860343608461496881630562F0BDF4
:10260000F0B5026A614B22F480720262066A446885
:10261000C5690A6826F400761D408B6846EA0326E1
:102620001543534B564A984218BF904208D1CF6881
:1026300026F4006646EA0726984226F480660AD009
:1026400090421CBF4D4A904205D04B4B98421CBF54
:10265000484A904206D14B698A6924F44054134396
:1026600044EA03144460C5614968C1630662F0BD71
:1026700070B5026A22F480520262036A4468C56936
:10268000434A00F06DF823F4005343EA0233B042AA
:102690001CBF3B4A904207D0384EB0421FBF364A5B
:1026A0009042344EB04204D14A6924F4804444EA52
:1026B00082144460C56149680164036270BD70B5ED
:1026C000026A344B22F480320262046A4568466D25
:1026D0000A681E4016438B68254A24F4003444EAF5
:1026E000034490421CBF264B984207D0234A904295
:1026F0001FBF214B98421F4A904204D14A6925F4DA
:10270000803545EA02254560466549688165046271
:1027100070BD70B5026A22F480120262036A4468D6
:10272000456D1D4A00F01CF823F4001343EA0253E0
:10273000B0421CBF124A904207D0104EB0421FBF99
:102740000D4A90420B4EB04204D14A6924F48024D1
:1027500044EA8224446045654968C165036270BDEE
:102760000E68154045EA06258A68014E704700004C
:10277000002C01400048014000440140004001405D
:102780000034014000080040000400408CFFFEFFC0
:10279000FF8CFFFE8FFFFEFFFF8FFFFEF0B500F105
:1027A0003C042278012A01D10220F0BD01222270CE
:1027B000022363700668DFF8E8E07768DFF8D8C0C6
:1027C000B568764518BF664503D14B6827F4700796
:1027D0001F430A6827F07007174377600268724545
:1027E00018BFB2F1804F0AD02C4882421CBF2D4B3B
:1027F0009A4204D062451CBF2B48824204D18868AB
:1028000025F080050543956001216170002020704E
:10281000F0BD30B590F83C20012A01D1022030BD36
:10282000012280F83C20CC688B684A6824F440740C
:102830001C4324F4806414430B680A6924F4006484
:102840001C4324F4805414434B698A6A24F40054D2
:102850001C4324F4804414438B69114A24F47024EB
:1028600044EA0344036893421CBF0B4DAB420CD1B6
:102870004A6A24F4700444EA0254CA69096A24F0DA
:102880008074144324F000740C435C64002280F8CC
:102890003C20002030BD0000003401400004004016
:1028A000002C014000080040004001402DE9F041AB
:1028B00004000D461646984611D004F17407796855
:1028C00021B9002038702046FEF78AFE2421796065
:1028D00000F02FF8204600F085F9012801D10120F1
:1028E0001FE0606A10B1204600F05EFA206881683F
:1028F00041F4804181602068816821F400410D43EA
:102900008560206801686FF3194141EA465141EA48
:102910000841016000F007F82046BDE8F04100F0F2
:10292000A6BABDE8F0812068016841F001010160AC
:102930007047206802685208520002607047704772
:1029400038B5040009D004F17405696809B900F0CC
:102950001EF800F021F8012801D1012032BD606A83
:1029600008B100F02AF800F00AF821F02A01FFE788
:10297000816000F01BF8BDE8324000F078BA2068B2
:10298000416821F4904141602068816870470020CF
:1029900028702046FEF724BE242169602068026862
:1029A000520852000260204600F01CB920680168FD
:1029B00041F00101016020467047204600F0F4B963
:1029C000816821F0400181607047F8B5044640F607
:1029D0000F002368D9691A689E68084004F15805F9
:1029E0000BD1880600D5970640F17C80E968002964
:1029F00077D02046BDE8F4400847F00703D4DFF85D
:102A000084733A426ED0C80707D5D70505D5012093
:102A10001862AB6A43F00103AB62880708D5F3077D
:102A200006D5276802203862A86A40F00400A86230
:102A3000480708D5F30706D5276804203862A86A36
:102A400040F00200A86208070AD5930601D4F007F7
:102A500006D5266808233362A86A40F00800A862F9
:102A6000080509D5530107D526684FF40060306288
:102A7000A86A40F02000A862A86A002831D0880621
:102A800005D5910603D5E96809B120468847A86AAB
:102A900021688A68510602D410F0280F1CD0204605
:102AA00000F05AFA206881684A0610D5FFF788FFBF
:102AB000A86960B10FF2D1414163A86900F0DEFD61
:102AC00000280ED0A869416BBDE8F44008472046B5
:102AD000BDE8F24000F0FABD204600F0F7FD00200E
:102AE000A862F1BDA86801284ED1C8064CD5D7060A
:102AF0004AD51020186222689068410625D5A96938
:102B00000868406880B2002865D02B88984262DA55
:102B100068808869202814D0116821F480711160C0
:102B2000206881684908490081602068FFF748FFF4
:102B3000202068620021A96000F04EF8A86900F02A
:102B40007DFD29886888091A18E02B8869886888BB
:102B5000591A00281CBF88B200283CD0106820F405
:102B600090701060206882685208520082602020B5
:102B700068620022AA60EA6000F02EF82046BDE8F4
:102B8000F44089B200F0A3BDC80209D5760207D58A
:102B90004FF4801018622046BDE8F240FFF7CFBE28
:102BA000080607D5160605D52969A1B12046BDE856
:102BB000F440084748060ED551060CD5186820F099
:102BC0004000186020212962002028612046BDE8CD
:102BD000F24000F07DBDF1BD2068026822F01002D5
:102BE0000260704770B50446674822681368A168A0
:102BF000034020690B4361690343E0690B430343CE
:102C0000136000255168E06821F440510143516090
:102C10009368A169206A23F430630B435B49034343
:102C20008A4293605A480AD1006800F003000328E2
:102C300015D8DFE800F00261754E012110E055491A
:102C40008A4236D1006810F4403067D0B0F5803F3A
:102C500052D0B0F5003F63D0B0F5403F39D01021DD
:102C6000E3694D48B3F5004F4FF6F0764FF400425C
:102C700060D141B1012955D0022908D0042954D08E
:102C8000082955D078E0FFF75DF8002875D0616815
:102C90004A0802EB4002B2FBF1F080B2A0F1100151
:102CA000B14269D20640C0F3420006432068C660C4
:102CB00063E03A498A420ED1006810F440202DD0DA
:102CC000B0F5802F18D0B0F5002F29D0B0F5402FE7
:102CD000C5D10221C4E732498A420FD1006810F4FD
:102CE00040101BD0B0F5801F06D0B0F5001F17D0E4
:102CF000B0F5401FEDD0B2E70421B1E729498A427F
:102D0000ADD1006810F4400008D0B0F5800FF3D0CA
:102D1000B0F5000F04D0B0F5400FEBE700219FE7BE
:102D200008219DE7FFF716F8AFE7FEF7EDFFACE7E8
:102D30001046ACE741B1012916D0022907D0042979
:102D400015D0082916D017E0FEF7FCFFA8B161687E
:102D500000EB5100B0FBF1F080B2A0F11001B142E4
:102D60000AD22268D06008E0FEF7F4FFEEE7FEF733
:102D7000CBFFEBE71046EAE7012500206066A0667E
:102D8000284670BD20010004F369FFFF00380140B0
:102D9000301002400044004000127A000048004019
:102DA000004C00400050004090F82410CA0706D59F
:102DB00002685368816A23F400330B43536090F830
:102DC00024108A0706D502685368C16A23F4803349
:102DD0000B43536090F824104A0706D502685368E5
:102DE000016B23F480230B43536090F824100A07EF
:102DF00006D502685368416B23F400430B435360CC
:102E000090F82410CA0606D502689368816B23F4F3
:102E100080530B43936090F824108A0606D502680D
:102E20009368C16B23F400530B43936090F8241014
:102E30004A0610D502685368016C23F480130B43D3
:102E40005360036CB3F5801F05D15368416C23F4C4
:102E5000C0030B43536090F824100A0606D501689E
:102E60004A68806C22F4002202434A607047F8B539
:102E7000044604F174050020E8606FF07E47FDF71A
:102E800021FE0646206801680A0708D500973346E8
:102E900000224FF40011204600F017F860B92068B6
:102EA00001684A070AD50097334600224FF4800193
:102EB000204600F00AF808B10320F2BD2020686027
:102EC000A860002020662870F2BD2DE9F041069C24
:102ED00005460E4690461F462868C1693140B142FA
:102EE0000CBF01200020404529D114F1010FF3D07F
:102EF000FDF7E8FDC01B844200D35CB92868016877
:102F000021F4D071016000F01CF800210170032051
:102F1000BDE8F081286801684A07DDD5C1690A0566
:102F2000DAD54FF4006101622868026822F4D07299
:102F30000260002200F005F8C1600270E7E700209F
:102F4000E6E72868816849084900816005F1740056
:102F5000202141608160704701680A6822F4907204
:102F60000A6001688A68520852008A60016E01296D
:102F700004D101680A6822F010020A602021C167AA
:102F80000022026642667047406A00F15201002248
:102F90000A810A8000F09ABB38B5040001D10120F3
:102FA00032BD606A28B900F06DF805D00021E161FA
:102FB00002E00020206160610020A06204F15C0555
:102FC000687820B9002129702046FEF7ABFB02206B
:102FD000687000F04FF8E168B1F5E06F04D90020A7
:102FE000B1F5706F03D104E04FF4805001D000219F
:102FF000A1626168A268237C01F4827102F4044238
:103000001143227D03F002031943A36902F0010278
:103010001143227F03F40073194394F8203002F027
:1030200038021143A26A03F080031943236802F4B3
:10303000005211431960A16994F8242094F83430A7
:10304000090C01F0040102F010021143E26803F0E0
:103050000803194302F47062114308432168486071
:103060002068C16921F40061C1610020686001210C
:10307000697032BD2068016821F04001016070472D
:1030800004460D466068B0F5827F70474AB1000083
:1030900011F8013B521E00F8013B1CBF11F8013B27
:1030A000F8E77047F0B585B050260B9D25B986F33B
:1030B000118800F011FAFEE70C9C24B986F3118800
:1030C00000F00AFAFEE754270097009F542F04D01F
:1030D00086F3118800F000FAFEE72563002602253A
:1030E00084F8515004AF0A9D03960294019700950D
:1030F00000F034F8204600F06DF8049805B0F0BDFB
:103100002DE9F8430646174684B088469946B8002C
:1031100000F0E0FA05001CD0542000F0DBFA0400B7
:1031200014D00020256384F85100039002940D9878
:103130000C99019000914B463A464146304600F0CA
:103140000DF8204600F046F8012004E0284600F083
:103150004AFB4FF0FF3005B0BDE8F0832DE9F047A2
:103160000A9E8146306B00EB8202101FC0084FEAB6
:10317000C00A00228C5CB01880F83440885C10B122
:10318000521C102AF6D3089D002086F84300062D15
:10319000099C88BF062506F14407F5623D6078600A
:1031A0009846301D00F07DFB06F1180000F079FB19
:1031B0003661C5F10705B56176620020B8603873E5
:1031C00042464946504600F0A9FB306004B12660F3
:1031D000BDE8F0872DE9F04100F067F8DFF8B4535F
:1031E000DFF8C883E86C401CE8641426A86A28BB92
:1031F000AC62E86C012829D1002706FB07F04044A7
:1032000000F042FB7F1C072FF7D305F1740000F09C
:103210003BFB05F18807384600F036FB284600F0F6
:1032200033FB05F1140000F02FFB05F1380000F02E
:103230002BFB05F17400E8622F6307E0A86D28B945
:10324000E06AA96ACA6A904228BFAC62A86E401CB4
:10325000A86600F093F94643211D08EB060000F034
:1032600023FB00F0E8FBA86D30B100F03AF903D27F
:1032700000F095F900F030F9BDE8F08180B588B133
:10328000DFF81023116F21B100F03CF800F024F9B1
:10329000FEE7116F491C1167002100F089F900F069
:1032A0003BF808B900F013F901BD044600F0AABBD1
:1032B00080B586B000210591049103AA04A905A850
:1032C000FEF78EFA0598049902900022009201916F
:1032D0000023039A0FF24C310FF21120FFF7E2FEA8
:1032E00070B100F00FF800F0F7F8DFF828034FF0A6
:1032F000FF31C166012282650021016500F030FBCB
:1033000007B000BD502080F311887047DFF8040338
:10331000016F491C0167704770B5DFF87862306F44
:103320000024002520B900F043F800F0D5F8FEE7AE
:1033300000F068FB306F401E3067306F002836D1D8
:10334000F06CD8B933E0F068C46800F035F800F0EC
:1033500012F9E06A716DDFF8B83201228240114340
:10336000716514225043211D184400F09DFAE06A53
:10337000B16ACA6A904224BF0121316630680028D0
:10338000E1D10CB100F0EAF8F46D3CB100F018F8AE
:1033900008B101203066641EF8D1F565306E30B199
:1033A000DFF874124FF08050012500F094F8ECE043
:1033B000502181F31188704704F1180000F09ABA87
:1033C0002DE9F843DFF8CC71386F002600284ED184
:1033D0003C6D641C3C6510D1F86A006820B1FFF7B1
:1033E000E7FF00F079F8FEE7F86A396BF9623863B5
:1033F000786E401C786600F0B1F8F86EDFF8109235
:1034000084424FF0140828D31AE0281D00F072FA05
:10341000A86A18B105F1180000F06CFAE86A796D35
:10342000012282401143796508FB00F0291D4844C0
:1034300000F03AFAE86AB96ACA6A904228BF0126DF
:10344000F86A006830B1F86AC168CD68686884427B
:10345000DBD201E04FF0FF30F866B86AC06A08FBC3
:1034600000F059F80010022904D3012602E0F86D9B
:10347000401CF865386E00B101268DE0DFF814219C
:10348000106F10B101211166704710661421506D44
:10349000B0FA80F3C3F11F034B43DFF87411C8582F
:1034A00038B9502181F31188BFF34F8FBFF36F8F6D
:1034B000FEE7C81800F10803416849684160994275
:1034C00004BF496841604068C16891627047DFF895
:1034D00048114FF080500860BFF34F8FBFF36F8FDC
:1034E0007047A86AC16AE06A8142704770B5DFF828
:1034F000BC40DFF8205111E000F084FA286AC66869
:10350000301D00F0F7F9E86C401EE864686B401E5F
:10351000686300F090FA304600F009F8686B002804
:10352000EAD121680229F9D3FFF7D1FFF6E710B5F8
:10353000044694F8510040B9206B00F054F920463D
:10354000BDE8104000F04FB910BD0128F7D00228A7
:10355000FAD0FFF7D7FEFFF7BFFFFEE70D49C86AB5
:10356000006810B94FF0FF3203E0C86AC268D06843
:103570004268CA667047201D00F0BCB90122E06AAB
:10358000696D824011436965704700F054FA28461E
:1035900070BD0000885200203046BDE8F2831E4A0C
:1035A0004FF080511160704700000000245300204C
:1035B000F8B5184D2F6D0C46A96A0646081D00F097
:1035C00099F930B9A86A696DC06A012282409143B5
:1035D000696516F1010F05D124B1A86A011D05F135
:1035E00038001BE0A86AF6194660BE42A86A05D2F8
:1035F000011D286BBDE8F44000F063B9011DE86AC5
:1036000000F05FF9E86E864238BFEE66F1BD00005B
:10361000245300208852002004ED00E0BDE8F4406F
:1036200000F042B949444C45000000007047704723
:1036300070477047704770477047000010B590F8AA
:103640002110022900F1380206D004231360002162
:1036500080F82010012010BD00F030F80C686408DC
:1036600064000C60916852688B4053600121002215
:1036700080F8211080F82020002010BD38B590F887
:1036800021100024022900F1340203D004205060EC
:10369000012411E000F012F80D686D086D000D6056
:1036A000D16895688B406B60012180F8211080F80B
:1036B0002040116801B18847204632BD01680B687F
:1036C00023F00E030B6001230168704770477047B9
:1036D000704700002DE9F8430446FFF717FE694FD5
:1036E000B8684FF00009002508BB07F1180307F17F
:1036F000180113F0070F4FF4A0400A4605D0CA1D69
:10370000D208D200C2F5A040081880180838C008B6
:10371000C0003A607D60B86045600560831A536000
:10372000106050683861F8604FF0004078614FF0E9
:1037300050087869044246D1002C44D0083414F073
:10374000070F1FBF04F1080004F00704041B14F066
:10375000070F02D000F040F8FEE7A4B3F868A042DB
:1037600031D33E68394601E0314606467068A042D2
:1037700002D230680028F7D1B868864223D00A68A0
:103780003068086002F108097268121B112A0CD314
:10379000311911F0070002D000F01EF8FEE7301DCD
:1037A00002517460084600F048F87168F8683A6998
:1037B000401AF860904238BF3861786901437160FF
:1037C000356009F00705FFF7A7FD15B100F004F813
:1037D000FEE74846BDE8F28388F31188BFF34F8FB8
:1037E000BFF36F8F7047002800D1704738B5A0F144
:1037F0000804244D61686A695023114202D100F027
:1038000015F8FEE7206810B100F010F8FEE79143CC
:103810006160FFF77BFDE96860684118E960204658
:1038200000F00BF8BDE83140FFF776BD83F3118857
:10383000BFF34F8FBFF36F8F704730B511490A4602
:1038400000E01A4613688342FBD35368D4188442BD
:1038500003D14068C3185360104643681468C51804
:10386000A54208D189688C4204D06168CB184360B6
:10387000246800E00C460460824218BF106030BD2E
:10388000000000001C0000204FF0FF3200F1080192
:1038900082604160C16000F10802026100210160A4
:1038A000704700210161704710B542684A60936813
:1038B0008B6094686160916008610168491C0160D7
:1038C00010BD30B50A6812F1010F08BF036907D0B7
:1038D00000F1080300E023465C682568AA42FAD29A
:1038E0005A684A6091608B60596008610168491CA0
:1038F000016030BD4368016982689A6083684268EC
:103900005A604A68824204BF83684B6000220261A9
:103910000868401E0860086870470000490810B534
:103920004900A0F120034FF0807499611A60DC61B6
:103930006FF002020FF20D01596140F8242D20387A
:1039400010BD00004E494A68502012F1010F80F36B
:103950001188BFF34F8FBFF36F8F00D0FEE7FEE7F4
:103960007CB5484A484B10685021984202D100F07B
:1039700095F8FEE71068454B984202D100F08EF8AA
:10398000FEE7434B1C780194FF251D7007251E7828
:103990003B4C8DF800609DF80000A56000F05000E1
:1039A000207006E0401EA0609DF8000040008DF8E9
:1039B0000000A0689DF800502E06F3D4C0F1070562
:1039C000042D02D000F06AF8FEE7000200F4E06087
:1039D000A06001981870116A41F470011162106AB8
:1039E00040F07040106200F061F80020606000F06C
:1039F000BBF82848016841F04041016000F0A4F89C
:103A0000002076BD502080F31188BFF34F8FBFF3A5
:103A10006F8F1B494A68521C012A4A600AD11E490D
:103A20000A68130606D080F31188BFF34F8FBFF3E7
:103A30006F8FFEE770471249486838B9502080F30D
:103A40001188BFF34F8FBFF36F8FFEE7401E4860B2
:103A500008BF80F31188704780B5502080F311882B
:103A6000BFF34F8FBFF36F8FFFF7AAFC18B10A495E
:103A70004FF080500860002282F3118801BD0000E1
:103A80000000002000ED00E071C20F4170C20F4144
:103A900000E400E034EF00E004ED00E081F3118881
:103AA000BFF34F8FBFF36F8F704700000748084B7D
:103AB0000021016081604FF47A721968B1FBF2F263
:103AC000521E426007210160704700BF10E000E015
:103AD00018000020EFF30980BFF36F8F264B1A68A0
:103AE0001EF0100F08BF20ED108A20E9F04F106083
:103AF00009B44FF0500080F31188BFF34F8FBFF32C
:103B00006F8FFFF7BBFC4FF0000080F3118809BCFA
:103B100019680868B0E8F04F1EF0100F08BFB0EC4D
:103B2000108A80F30988BFF36F8F7047124B1968B2
:103B30000868B0E8F04F80F30988BFF36F8F4FF04B
:103B4000000080F3118870470C480068006880F31B
:103B500008884FF0000080F3148862B661B6BFF3A6
:103B60004F8FBFF36F8F00DFDFF81400016841F45F
:103B70007001016070470000B052002008ED00E0C5
:103B800088ED00E030B5016884684218416802EBB6
:103B90005103C90703D54C4401E0491C05D19A42A1
:103BA0000AD012F9011B12F8015B002904F8015B2D
:103BB000F3D4491EF7D5F2E70C3030BD0448054A6E
:103BC000016841F4700101604FF0006010607047BF
:103BD00088ED00E008ED00E00000000000000000BB
:103BE000010203040607080910B507497944183192
:103BF000064C7C44163404E00A68081D11448847CA
:103C00000146A142F8D110BD2C0000004800000080
:103C10004EF68851CEF20001086840F4700008604A
:103C2000BFF34F8FBFF36F8F4FF00070E1EE100ABC
:103C300070470000A7CFFFFF585900001C0000206C
:103C40000000000041FFFFFFB00100002400000061
:103C5000000000207047FEE7FEE7FEE7FEE7704742
:103C60000248FEF7B2BE0248FEF7C8BAB0530020C1
:103C70007056002000F00DF8002801D0FFF7B4FFC7
:103C8000AFF300800020AFF30080FCF72BFF00F0C3
:103C900002F80120704700F001B8000007463846DE
:103CA00000F002F8FBE7000080B5AFF30080024AA5
:103CB00011001820ABBEFBE7260002000148804738
:103CC00001480047BD3B0008E53C00084D61696EB6
:103CD0005461736B000000004D6F644275735F5454
:103CE00061736B00AFF30080FFF792FFFFF7C2FF35
:103CF0000000000001020304FFF7FEBFFFF7FEBF54
:103D0000FFF7FEBFFFF7FEBFFFF7FEBFFFF7FEBFE7
:103D1000FFF7FEBFFFF7FEBFFFF7FEBFFFF7FEBFD7
:103D2000FFF7FEBFFFF7FEBFFFF7FEBFFFF7FEBFC7
:103D3000FFF7FEBFFFF7FEBFFFF7FEBFFFF7FEBFB7
:103D4000FFF7FEBFFFF7FEBFFFF7FEBFFFF7FEBFA7
:103D5000FFF7FEBFFFF7FEBFFFF7FEBFFFF7FEBF97
:103D6000FFF7FEBFFFF7FEBFFFF7FEBFFFF7FEBF87
:103D7000FFF7FEBFFFF7FEBFFFF7FEBFFFF7FEBF77
:103D8000FFF7FEBFFFF7FEBFFFF7FEBFFFF7FEBF67
:103D9000FFF7FEBFFFF7FEBFFFF7FEBFFFF7FEBF57
:103DA000FFF7FEBFFFF7FEBFFFF7FEBFFFF7FEBF47
:103DB000FFF7FEBFFFF7FEBFFFF7FEBFFFF7FEBF37
:103DC000FFF7FEBFFFF7FEBFFFF7FEBFFFF7FEBF27
:103DD000FFF7FEBFFFF7FEBFFFF7FEBFFFF7FEBF17
:103DE000FFF7FEBFFFF7FEBFFFF7FEBFFFF7FEBF07
:103DF000FFF7FEBFFFF7FEBFFC00FCAAFC000001BE
:0A3E0000F9000010FC0002127A0025
:0400000508003CE5CE
:00000001FF
