:020000040800F2
:10000000B00600209D0100082B250008D71F00081E
:10001000292500080B0300086D2D000800000000D2
:100020000000000000000000000000002F25000874
:100030000D030008000000002D25000831250008F0
:10004000B7010008B7010008B7010008B7010008B0
:10005000B7010008B7010008B7010008B7010008A0
:10006000B7010008B7010008B7010008B701000890
:10007000B7010008B7010008B7010008B701000880
:10008000B7010008B7010008B7010008B701000870
:10009000B7010008B7010008B7010008B701000860
:1000A000B7010008B7010008B7010008B701000850
:1000B000B7010008B7010008B7010008B701000840
:1000C000B7010008B7010008B7010008B701000830
:1000D000B7010008612D0008B7010008B70100084A
:1000E000B7010008B7010008B7010008B701000810
:1000F000B7010008B7010008B7010008B701000800
:10010000000000000000000000000000B70100082F
:10011000B7010008B7010008B7010008B7010008DF
:10012000B7010008B7010008B7010008B7010008CF
:10013000B7010008B701000800000000000000003F
:10014000B7010008B7010008B7010008000000006F
:10015000000000000000000000000000000000009F
:100160000000000000000000B7010008B70100080F
:10017000B7010008000000000000000000000000BF
:1001800000000000B7010008DFF80CD000F07AF89A
:1001900000480047AD2D0008B00600200648804703
:1001A00006480047FEE7FEE7FEE7FEE7FEE7FEE75C
:1001B000FEE7FEE7FEE7FEE7A52500088901000847
:1001C0002DE9F05F0546002092469B46884606468C
:1001D000814640241BE0284641464746224600F01F
:1001E00020F853465A46C01A914110D3114618467A
:1001F000224600F038F82D1A67EB01084F462246D8
:100200000120002100F02FF817EB00094E41201EBD
:10021000A4F10104DFDC484631462A464346BDE8E6
:10022000F09F202A04DB203A21FA02F000217047D7
:1002300021FA02F3D040C2F120029140084319464E
:100240007047D2B201E000F8012B491EFBD2704783
:100250000022F6E710B513460A4604461946FFF792
:10026000F0FF204610BD202A04DB203A00FA02F1FC
:10027000002070479140C2F1200320FA03F3194394
:1002800090407047064C074D06E0E06840F00103DF
:1002900094E8070098471034AC42F6D3FFF778FF94
:1002A000182E0008382E000870B5044600688168D2
:1002B00001F00301012926D10168C90723D0816813
:1002C00001F00D01012910D1816841F00201816026
:1002D00021680320086000F015FD05460FE000BF0F
:1002E00000F010FD401B022809D9206C40F01000DE
:1002F0002064606C40F001006064012070BD2068E3
:100300008068C007ECD1002070BDFEE770477047E1
:10031000F0B5002302684FF0A04C3E4C94B01F464D
:10032000624501D100940DE0A24202D1CDF800C097
:1003300008E0394D394EAA4201D1009602E0B2429E
:1003400014D1009590F83C50012D12D0012580F871
:100350003C5095686D0753D4009DAD686D074FD430
:10036000624501D0A24206D12D4A05E0012014B019
:10037000F0BD0220FBE72B4A0D6840F61F7425B341
:10038000956890F8306025F4604545EA46354E683A
:10039000354395600568AE6806F00306012E02D16C
:1003A0002D68ED0731D1009DAD6805F00305012DE5
:1003B00003D1009D2D68ED0727D10D6889680D4395
:1003C0009168A1430D4395601FE0916821F460415D
:1003D000916001688D6805F00305012D02D109685F
:1003E000C90712D10099896801F00301012903D1DD
:1003F00000990968C90708D19168A143916004E098
:10040000016C41F020010164012380F83C70184622
:10041000ADE700000001005000040050000500504E
:100420000003005000070050F0B594B00024009481
:1004300090F83C202546012A19D0012780F83C700D
:1004400003689A6852077CD44A681F26052A11D28D
:10045000D3F830C002EB4202520096402CEA060C60
:100460000E6896404CEA060CC3F830C035E0022016
:1004700014B0F0BD0A2A0FD2D3F834C0521F02EBD9
:100480004202520096402CEA060C0E6896404CEA56
:10049000060CC3F834C020E00F2A0FD2D3F838C0BE
:1004A0000A3A02EB4202520096402CEA060C0E6811
:1004B00096404CEA060CC3F838C00EE0D3F83CC0B6
:1004C0000F3A02EB4202520096402CEA060C0E68EC
:1004D00096404CEA060CC3F83CC00268936813F0DF
:1004E0000C0F4FF0070374D1D1F800E0BEF10A0FF2
:1004F00010D39669AEF10A0E0EEB4E0C03FA0CFE09
:1005000026EA0E06D1F808E00EFA0CFE46EA0E06C0
:1005100096610FE0D2F814C00EEB4E0603FA06FE09
:100520002CEA0E0CD1F808E00EFA06FE4CEA0E0C8E
:10053000C2F814C002684E69D2F80CC0CCF3C10CEA
:1005400000E0FDE04FEA4C0C06FA0CF6D1F810E0A2
:10055000DFF848C2BEF1010F42D0BEF1020F4DD00C
:10056000BEF1030F58D0BEF1040F63D0166E91F8A0
:1005700000C006F0F846B6EB8C6F03D1166E26F07D
:10058000004616660268566E91F800C006F0F846FE
:10059000B6EB8C6F03D1566E26F0004656660268A5
:1005A000966E91F800C006F0F846B6EB8C6F03D15A
:1005B000966E26F0004696660268D66E91F800C0E8
:1005C00006F0F846B6EB8C6F03D1D66E26F00046E7
:1005D000D6660268966806F00306012E3AD136E028
:1005E000D2F860E00EEA0C0E91F800C046EA8C6684
:1005F0004EEA060E4EF000461666EAE7D2F864E0D0
:100600000EEA0C0E91F800C046EA8C664EEA060E21
:100610004EF000465666DCE7D2F868E00EEA0C0EB3
:1006200091F800C046EA8C664EEA060E4EF000468F
:100630009666CEE7D2F86CE00EEA0C0E91F800C098
:1006400046EA8C664EEA060E4EF00046C0E7166893
:10065000F6077AD1CE68012E06D052F8B03F0E7858
:10066000B740BB43136021E052F8B06F91F800C06F
:1006700007FA0CF73E4316600A680A2A0BD306688D
:10068000B769093A02EB420293409F438B6893405B
:100690001F43B7610AE007687E69521C02EB420201
:1006A00093409E438B6893401E437E6103684FF0E6
:1006B000A0473B4EBB4201D0B34201D1394A00E0D2
:1006C000394A0968102904D0112907D012290AD003
:1006D0003BE0D2F808C04FEA0C2C08E0D2F808C082
:1006E0004FEACC1C03E0D2F808C04FEA4C2CBCF116
:1006F000000F2ADBBB420DD0B34201D100970CE0C2
:100700002A4EDFF8ACC0B34202D1CDF800C004E0FD
:10071000634501D1009600E000959E6806F003064F
:10072000012E02D11E68F6070AD1009E8EB1B6686E
:1007300006F00306012E0CD1009E3668F60708D09D
:10074000016C41F020010164012480F83C502046F6
:100750008EE6102908D011291AD01229F5D19168F6
:1007600041F480019160F0E7BB42EED1916841F421
:10077000000191600F49104A0968B1FBF2F101EBE9
:100780008101490000E0491E00910029FBD1DCE70E
:10079000BB42DAD1916841F08071E3E700F0FF835A
:1007A00000010050000300500007005000040050FA
:1007B000000500500C00002040420F00F0B54FF043
:1007C000000695B0040037463546009605D0206CEB
:1007D000C00648D4206C18B133E0012015B0F0BD3C
:1007E0006564E564A56484F83C50204600F00CF98B
:1007F00020688068C00024D42046FFF755FD0646D7
:10080000206CC0061DD4E6B9206C20F4885040F05E
:10081000020020642068816821F0405181602068D6
:10082000816841F0805181606E486F490068B0FB7B
:10083000F1F000EB8000400000E0401E0090002836
:10084000FBD120688168C90002D5806880000AD584
:10085000206C20F0020040F010002064606C40F03A
:10086000010060640126206CC00676D4002E74D18D
:1008700020688168490770D4216C21F4807141F0AF
:10088000020121644FF0A04E584B704501D09842B0
:1008900001D1574A00E0574ADFF85CC1574970451B
:1008A00001D100930EE0984202D1CDF800E009E0BA
:1008B000884202D1CDF800C004E0604501D100912A
:1008C00000E00095836803F00303012B02D1006868
:1008D000C00710D1009840B1806800F003000128E3
:1008E00003D100980068C00705D19068636820F4C0
:1008F000403018439060D4E902201043626B012A13
:1009000002D04FF4805300E00023627E43EA42337A
:10091000184394F820303843012B0AD1F2B1226CED
:1009200022F0020242F020022264626C42F00102D4
:100930006264A26A012A21D023688B4201D06345F8
:1009400018D14FF430774FF4E071BA4213D04FF41E
:1009500080739A420AD139460DE039E0A28C284BC7
:1009600003EB4242024342F48030E2E78A4201D183
:10097000194600E011460143E06A084321688A688D
:1009800012F00C0F0BD1CA6844F202039A43CA60FA
:10099000217E94F83020890341EA4201084322680D
:1009A000D168184B19400143D160206901282068A3
:1009B000016B21F00F0102D1E269521E1143016364
:1009C0006564206C20F0020040F00100206406E025
:1009D000206C20F0020040F0100020640126304618
:1009E000FCE600000C00002040420F000001005017
:1009F00000030050000700500005005000040050A4
:100A00000000FEFF07C0F0FF70B586B00446142159
:100A10006846FFF71DFC216800243E480325B1F11C
:100A2000A04F3FD03C4A91423AD1416941F0005138
:100A30004161416901F000510591416941F40011A2
:100A40004161416901F400110591416941F480213E
:100A50004161416901F480210591416941F48011AE
:100A600041614069694600F4801005904FF44140AF
:100A7000CDE900050294294800F080F84FF4504079
:100A8000CDE9000569460294254800F077F84FF457
:100A9000FE40CDE9000569460294224800F06EF858
:100AA00006B070BD416941F080514161416901F07A
:100AB00080510591416941F400214161416901F48E
:100AC00000210591416941F480014161416901F4CE
:100AD00080010591416941F40031416140690F266F
:100AE00000F4003000960590CDE9015469460E48A7
:100AF00000F044F81420CDE90005694602940B4843
:100B000000F03CF80096CDE9015469464FF0904062
:100B1000C4E700000010024000050050001000482B
:100B200000040048000C0048000800480014004879
:100B300010B590F821100024022903D0042181630C
:100B4000012418E001680A6822F00E020A600168B8
:100B50000A6822F001020A6090F84020C36B01216C
:100B600001FA02F25A6080F82110002180F820106A
:100B7000416B01B18847204610BD00002DE9F84FB8
:100B8000DFF864B100234FF0010C4FF0030A4FF07F
:100B90000F090BF1040EA0E00CFA03F6324072D0FC
:100BA0004C68022C01D0122C0ED1DC0800EB84081A
:100BB000D8F820405D07EF0E09FA07F5AC430D6940
:100BC000BD402543C8F8205007685D0091F80480B7
:100BD0000AFA05F408F00308A74308FA05F848EAFA
:100BE0000708C0F800804F68012F05D0022F03D0FE
:100BF000112F01D0122F11D18768D1F80C80A74393
:100C000008FA05F848EA0708C0F808804768B743BB
:100C10000E79C6F300169E403E434660C668A64362
:100C20008C68AC403443C4604C68E40054D52F4C0D
:100C3000A56945F00105A561A46923F0030504F049
:100C4000010400942A4C2E19B4689D072F0F09FA4D
:100C500007F5AC43B0F1904F04D0264DA84203D124
:100C6000012512E0002510E0234DA84201D1022504
:100C70000BE0224DA84201D1032506E0204DA842F9
:100C800002D1042501E027E00525BD402543B560DC
:100C9000DBF800405D464E689443F60300D51443EC
:100CA0002C60DEF8004075464E689443B60300D5CC
:100CB00014432C600C4D08352C684E689443F602A2
:100CC00000D514432C60084D0C352C684E689443B5
:100CD000B60200D514432C605B1C0A6832FA03F498
:100CE0007FF45AAFBDE8F88F0004014000100240C5
:100CF000000001400004004800080048000C0048C3
:100D00000010004801488068704700000000002083
:100D10000248816802781144816070470000002019
:100D2000074810B5016841F010010160032000F090
:100D30006DF8002000F006F800F024F8002010BD47
:100D40000020024070B50D4D04464FF47A712878AA
:100D5000B1FBF0F00A490968B1FBF0F000F066FD64
:100D600048B9102C07D200222146501E00F02EF860
:100D700000206C6070BD012070BD000000000020EC
:100D80000C000020094808B5816941F0010181612A
:100D9000816901F001010091C16941F08051C16197
:100DA000C06900F08050009008BD000000100240B3
:100DB000002809DB00F01F0201219140400980005A
:100DC00000F1E020C0F8001170470000F0B40E4BB5
:100DD0001B680C46C3F30223C3F10705042D00D999
:100DE0000425191D072901D2002300E0DB1E01267E
:100DF00006FA05F1491E214099409E40761E164094
:100E00003143F0BC01F0B3BF0CED00E0064900F047
:100E1000070208684FF6FF03184040EA0220034A21
:100E200010430860704700000CED00E00000FA0578
:100E30002DE9F84F04460068804DC0036FD5E8697E
:100E40000026C00008D4E86940F08050E861E869F5
:100E5000012600F08050009079480168C90512D43D
:100E60000168804641F480710160FFF74BFF07463F
:100E700005E000BFFFF746FFC01B642835D8D8F84F
:100E80000000C005F6D5286A10F4407053D0A18840
:100E900001F4407181424ED0286A4FF4803191FABA
:100EA000A1F2B2FA82F29700664A4FF001081744A5
:100EB00020F44070C7F8008491FAA1F1B1FA81F1F1
:100EC00002EB81010023C1F800342862C00732D050
:100ED000FFF718FF074641F2883A4FF0020907E092
:100EE000FFF710FFC11B514502D90320BDE8F88F61
:100EF00099FAA9F1B1FA81F141F040014846B8EB05
:100F0000511F01D129680CE090FAA0F1B1FA81F1EA
:100F100041F04001B0EB511F02D1296A01E015E018
:100F2000696A99FAA9F0B0FA80F000F01F0008FA97
:100F300000F21142D4D0286A616820F4407008435E
:100F400028621EB1E86920F08050E8612078C0076F
:100F500005D0286BA16820F003000843286320789F
:100F6000800705D5286BE16820F4403008432863EA
:100F70002078400705D5286B216920F440200843DC
:100F800028632078800605D5286BE16920F01000E1
:100F9000084328632068800305D56868A16B20F4A6
:100FA0008000084368602078400605D5286B216AD8
:100FB00020F02000084328632078000705D5286B1F
:100FC000616920F44010084328632078C00605D5E5
:100FD000286BA16920F4400008432863208880051D
:100FE00005D56868E16A20F400000843686020784D
:100FF000000605D5E86A616A20F4F8700843E862E3
:101000002088C00505D5E86AA16A20F47850084315
:10101000E8622088C00405D5286B216B20F480701D
:10102000084328632088800405D5286B616B20F471
:10103000007008432863002058E7000000100240B9
:1010400000700040000042422DE9F0470F460500C5
:1010500069D04A4E306800F00700B84209D23068C3
:1010600020F0070038433060306800F00700B842D5
:1010700059D12878424C800705D56068A96820F0CE
:10108000F000084360602878C0073DD069680120FF
:1010900001290DD0022923D05FF0020393FAA3F2B5
:1010A000B2FA82F242F02002520904D0226803E030
:1010B0004FF40033F2E7626A93FAA3F3B3FA83F3CF
:1010C00003F01F03984002422DD0606820F0030017
:1010D00008436060FFF716FE804641F288390CE055
:1010E0004FF00073DAE700BFFFF70CFEA0EB08013A
:1010F000494502D90320BDE8F0876068696800F0BF
:101100000C00B0EB810FEFD1306800F00700B8425F
:101110000BD9306820F0070038433060306800F0A9
:101120000700B84201D00120E5E72878400705D53F
:101130006068E96820F4E060084360602878000790
:1011400006D56068296920F4605040EAC1006060FB
:1011500000F04EF86168F02292FAA2F201F0F0017C
:10116000B2FA82F2D140074A515CC8400649086091
:1011700006480068FFF7E6FD0020BCE700200240BB
:1011800000100240FE2D00080C000020040000208A
:1011900008480949006849684FF4E06292FAA2F2EF
:1011A00001F4E061B2FA82F2D140044A515CC840D5
:1011B000704700000C000020001002400E2E0008B6
:1011C00008480949006849684FF4605292FAA2F24F
:1011D00001F46051B2FA82F2D140044A515CC84035
:1011E000704700000C000020001002400E2E000886
:1011F000174A10B55168174801F00C03042B02D0B0
:10120000082B01D0144810BD4FF4701494FAA4F4C4
:1012100001F47013B4FA84F4E340104CD26AE45C35
:101220000F2393FAA3F302F00F02B3FA83F3DA4029
:101230000A4B1033C9039A5C06D500231946FEF702
:10124000BFFFA0FB040110BD0548A4FB000110BDB9
:1012500000100240001BB70000127A00DE2D0008CB
:1012600000093D002DE9F84F050071D02878FC4EAB
:10127000C0074FF0010425D070686704C0F38100F7
:10128000012807D07068C0F3810002281BD1706864
:10129000C00318D597FAA7F0B0FA80F040F020000C
:1012A000400901D0306800E0706A97FAA7F1B1FAFE
:1012B00081F101F01F0104FA01F1084265D068686C
:1012C0000028D2D061E06868B0F5803F0BD010B143
:1012D000B0F5A02F17D0306820F48030306030682F
:1012E00020F4802002E0306840F480303060F06A02
:1012F000A96820F00F000843F062686820B3FFF788
:1013000001FD80460AE0306840F480203060EAE762
:10131000FFF7F8FCA0EB0800642871D897FAA7F053
:10132000B0FA80F040F02000400901D0306800E0C1
:10133000706A97FAA7F1B1FA81F101F01F0104FA7E
:1013400001F10842E4D020E0FFF7DCFC804607E032
:10135000C2E000BFFFF7D6FCA0EB08006428DCD891
:1013600097FAA7F0B0FA80F040F02000400901D0D1
:10137000306800E0706A97FAA7F1B1FA81F101F0E4
:101380001F0104FA01F10842E4D12878DFF8D48281
:1013900080074FF0000A4FF0020730D570684FF019
:1013A000F80B10F00C0F07D07068C0F38100022812
:1013B00027D17068C00324D497FAA7F0B0FA80F060
:1013C00040F02000400901D0306800E0706A97FAD0
:1013D000A7F1B1FA81F101F01F0104FA01F108420D
:1013E00002D02869012877D130689BFAABF220F04F
:1013F000F8016869B2FA82F29040014331605AE024
:1014000064E1286988B394FAA4F0B0FA80F048F84F
:101410002040FFF777FC814606E000BFFFF772FC33
:10142000A0EB090002289AD897FAA7F0B0FA80F04A
:1014300040F02000400901D0306800E0706A97FA5F
:10144000A7F1B1FA81F101F01F0104FA01F108429C
:10145000E4D030689BFAABF26969B2FA82F220F00C
:10146000F80091400843306025E0FFE794FAA4F0CB
:10147000B0FA80F048F820A0FFF744FC814605E070
:10148000FFF740FCA0EB09000228CCD897FAA7F0A0
:10149000B0FA80F040F02000400901D0306800E050
:1014A000706A97FAA7F1B1FA81F101F01F0104FA0D
:1014B00001F10842E4D1287800076CD5A869A8B3E7
:1014C00094FAA4F0B0FA80F008EB8000C0F88044F1
:1014D000FFF718FC814607E0A4E100BFFFF712FC0C
:1014E000A0EB090002289ED897FAA7F0B0FA80F086
:1014F00040F06000B4EB501F01D130680BE097FA68
:10150000A7F0B0FA80F040F06000B7EB501F01D1B7
:10151000306A00E0706A97FAA7F1B1FA81F101F040
:101520001F0104FA01F21042D8D034E0FFE794FA28
:10153000A4F1B1FA81F108EB8101C1F880A4FFF7B1
:10154000E1FB814606E000BFFFF7DCFBA0EB0900F2
:1015500002289AD897FAA7F0B0FA80F040F060001D
:10156000B4EB501F01D130680BE097FAA7F0B0FA46
:1015700080F040F06000B7EB501F01D1306A00E00E
:10158000706A97FAA7F1B1FA81F101F01F0104FA2C
:1015900001F21042D8D12878400768D5F0694FF0A1
:1015A0000009C00009D4F06940F08050F061F06992
:1015B0004FF0010900F0805000902B480168C905E8
:1015C00012D4016841F480710160FFF79BFB8346F0
:1015D00006E000BFFFF796FBA0EB0B00642875D870
:1015E00021480068C005F5D5E86801280AD008B18F
:1015F000052811D0306A20F001003062306A20F0F6
:10160000040002E0306A40F001003062E86868B32C
:10161000FFF778FB83460DE0306A40F0040030624B
:10162000F0E700BFFFF76EFBA0EB0B0141F2883043
:1016300081424BD897FAA7F0B0FA80F040F0400012
:10164000B4EB501F01D1306813E097FAA7F0B0FA5D
:1016500080F040F04000B7EB501F09D1306A08E03D
:101660000010024000004242007000400CE040E0E8
:10167000706A97FAA7F1B1FA81F101F01F0104FA3B
:1016800001F21042CED02DE0FFF73CFB834607E08D
:10169000FFF738FBA0EB0B0141F28830814215D8EF
:1016A00097FAA7F0B0FA80F040F04000B4EB501F7A
:1016B00001D130680CE097FAA7F0B0FA80F040F062
:1016C0004000B7EB501F02D1306A01E083E0706A3E
:1016D00097FAA7F1B1FA81F101F01F0104FA01F2C2
:1016E0001042D5D1B9F1000F03D0F06920F080503D
:1016F000F061E86980B37168C1F38101022977D094
:101700004FF080714F000228504609D091FAA1F1A4
:10171000B1FA81F148F82100FFF7F4FA05465DE0DF
:10172000894691FAA1F1B1FA81F1C24648F8210047
:10173000FFF7E8FA804605E0FFF7E4FAA0EB0800BF
:10174000022848D897FAA7F0B0FA80F040F02000BD
:10175000400902D0306801E066E0706A97FAA7F1AC
:10176000B1FA81F101F01F0104FA01F10842E3D15D
:10177000D5E908100843716821F4741108437060BA
:1017800099FAA9F0B0FA80F04AF82040FFF7BAFAC7
:10179000054604E0FFF7B6FA401B02281BD897FA6B
:1017A000A7F0B0FA80F040F02000400901D0306886
:1017B00000E0706A97FAA7F1B1FA81F101F01F0118
:1017C00004FA01F10842E5D02EE000BFFFF79AFAD3
:1017D000401B022802D90320BDE8F88F97FAA7F032
:1017E000B0FA80F040F02000400902D0306801E0FB
:1017F0000BE0706A97FAA7F1B1FA81F101F01F01CD
:1018000004FA01F10842E1D10EE00128E4D0706849
:101810002A6A00F48031914204D1696A00F47010A0
:10182000884201D00120D7E70020D5E710B5401E3F
:10183000B0F1807F01D3012010BD4FF0E024606142
:101840000F21601701F093FA0020A06107202061AA
:10185000002010BD30B590F83C20012A3AD001227A
:1018600080F83C20CA688B6822F440721A434B68A7
:1018700022F480621A430B6822F400621A430B6957
:1018800022F480521A434B6922F400521A438B6AA5
:1018900022F480421A430B8B22F4702242EA034264
:1018A0000D4D03680024AB4202D00C4DAB420CD16D
:1018B0008D8C22F4700242EA0552CD6922F08072CA
:1018C0002A43096A22F000720A435A6480F83C40B5
:1018D000002030BD022030BD002C0140003401400A
:1018E000F0B590F83C20012A36D0012480F83C4025
:1018F000022280F83D20026853689568174E184F01
:10190000B24201D0BA4204D123F4700C4B6843EACE
:101910000C0323F0700C0B6843EA0C03536002685D
:10192000B2420DD0B2F1804F0AD00E4B9A4207D08E
:101930000D4B9A4204D0BA4202D00C4B9A4204D1C9
:10194000896825F080031943916080F83D400021AB
:1019500080F83C100846F0BD0220F0BD002C01408C
:1019600000340140000400400008004000400140F5
:1019700010B5040003D094F83D0010B107E0012039
:1019800010BD002084F83C00204600F00DF8022035
:1019900084F83D00211D206800F012FE012084F82B
:1019A0003D00002010BD000008B5006806498842CF
:1019B00008D10648C16941F01001C161C06900F059
:1019C0001000009008BD0000001000400010024010
:1019D0002DE9F04387B0044614216846FEF738FC31
:1019E000684B2068002468490225684A4FF09049F6
:1019F000984224D1486940F400104861486900F4D5
:101A000000100590486940F4003048614869694613
:101A100000F4003005904FF428500090CDE90154B7
:101A20001046CDE90345FFF7A9F8A8020090CDE9DB
:101A300001540B20CDE90340694648464CE0DFF8ED
:101A40005081544EB0F1804F11D0534B984248D141
:101A5000486940F4001048614869694600F4001084
:101A600005903C200090CDE90154104670E0486993
:101A700040F400304861486900F40030059048693E
:101A800040F480204861486900F48020059048694E
:101A900040F4801048614869012700F480100590E7
:101AA00020200090CDE90154CDE90347694648461E
:101AB000FFF764F84FF440600090CDE90154CDE9A0
:101AC000034769464046FFF759F810200090CDE9DA
:101AD0000154694630463BE0FFF750F807B0BDE8D7
:101AE000F0832E4A904236D1486940F48010486114
:101AF000486900F480100590486940F4003048615E
:101B0000486900F400300590486940F4802048613D
:101B10004869694600F480200590D0130090CDE913
:101B200001543046CDE90345FFF728F84FF4405003
:101B30000090CDE901540A20CDE9034069464846AA
:101B4000FFF71CF840200090CDE90154694640465B
:101B5000CDE90345C0E7124A9042BFD1486940F43D
:101B6000002048614869694600F4002005904FF460
:101B700070700090CDE901540420CDE9034009487C
:101B8000AAE70000002C01400010024000100048AD
:101B900000040048000C0048000400400008004019
:101BA000003401400008004870B5044690F83C003D
:101BB0000D4601280ED0012684F83C60022084F8EE
:101BC0003D000C2A45D007DC5AB1042A1BD0082A54
:101BD00078D12CE0022070BD102A4ED0142A71D189
:101BE0005DE0206800F044FD2068816941F0080153
:101BF00081612068816921F0040181612068816927
:101C00002A69114311E0206800F080FD2068816995
:101C100041F4006181612068816921F48061816102
:101C2000206881692A6941EA022181614AE02068CD
:101C300000F0B4FD2068C16941F00801C16120686D
:101C4000C16921F00401C1612068C1692A69114399
:101C500011E0206800F0EAFD2068C16941F40061EC
:101C6000C1612068C16921F48061C1612068C169D6
:101C70002A6941EA0221C16124E0206800F010FED7
:101C80002068416D41F0080141652068416D21F0F7
:101C9000040141652068416D2A69114311E0206803
:101CA00000F036FE2068416D41F400614165206816
:101CB000416D21F4806141652068416D2A6941EAE6
:101CC0000221416584F83D60002084F83C0070BD2D
:101CD00010B5040003D094F83D0010B107E00120D6
:101CE00010BD002084F83C00204600F00DF80220D2
:101CF00084F83D00211D206800F062FC012084F87A
:101D00003D00002010BD000008B51D4A01681D48B7
:101D1000914207D1816941F400618161806900F4D9
:101D2000006014E0B1F1804F0AD0174A914210D1FF
:101D3000C16941F00201C161C06900F0020006E022
:101D4000C16941F00101C161C06900F0010000906A
:101D500008BD0E4A914207D1C16941F00401C16139
:101D6000C06900F00400F2E7094A9142F0D18169AC
:101D700041F400518161806900F40050E7E7000000
:101D8000002C014000100240000400400008004008
:101D900000340140704770472DE9F0410268044665
:101DA000D0691168936840F60F0528424FF000058E
:101DB00005D186067BD58E0679D5216E88E003F0A5
:101DC000010601F49077374371D0C70707D0CF05DC
:101DD00005D501271762E26F42F00102E267820730
:101DE00008D5DA0706D0276802223A62E26F42F08D
:101DF0000402E267420708D5DA0706D02368042206
:101E00001A62E26F42F00202E26702070AD501F0AD
:101E10002002324306D0236808221A62E26F42F0A1
:101E20000802E267020509D54A0107D523684FF485
:101E300000621A62E26F42F02002E267E26F002A5B
:101E40002ED0800605D5880603D5216E09B120461F
:101E50008847E06F21688968490602D410F0280F8E
:101E600020D0204600F026FE20688168490614D55F
:101E7000816821F040018160E06E70B11D494163CD
:101E8000E06EFEF755FE00280AD0E06E416B00E0E0
:101E90002046BDE8F041084709E02046FFF77BFFF8
:101EA000BDE8F0812046FFF776FFE567F8E7C60258
:101EB00009D55B0207D54FF4801010622046BDE8BB
:101EC000F041FFF767BF030605D50B0603D5616E2A
:101ED0000029DDD1E4E74006E2D54806E0D51168E7
:101EE000204621F04001116020216167656600F005
:101EF00071F8D5E7A12A000810B5040002D0606F80
:101F000010B107E0012010BD002084F870002046C9
:101F100000F026F8242060672068016821F00101A4
:101F20000160204600F0D6FD0128ECD0606A10B1B7
:101F3000204600F025FD2068416821F49041416071
:101F40002068816821F02A0181602068016841F0E1
:101F5000010101602046BDE8104000F075BD0000A1
:101F600010B586B0044614216846FEF771F916498B
:101F70002068884226D11548816941F480418161F9
:101F8000816901F480410591416941F40021416179
:101F90004069694600F4002005903020009002203E
:101FA000019000200290032003900720049008482D
:101FB000FEF7E4FD002211462520FEF707FF25204D
:101FC000FEF7F6FE06B010BD0038014000100240DA
:101FD000000800487047FEE730B589B00024069439
:101FE0000794182168460894FEF732F918484FF014
:101FF000A0410125C0E9001484600461447680F8A2
:102000002040C0E90A54C561C46080F83040042112
:10201000416104764463FEF7D1FB08B1FEF777F91E
:1020200006A90B480694FEF773F908B1FEF76FF99D
:1020300000950394CDE9015404946946044805943D
:10204000FEF7F2F9002801D0FEF761F909B030BDC2
:102050001000002030B587B018216846FEF7F8F868
:10206000154814490024C0E90014846004614476D2
:1020700080F820400125C0E90A54C561C46080F899
:1020800030400421416104764463FEF797FB08B1B8
:10209000FEF73DF900950394CDE901540494694697
:1020A00005480594FEF7C0F9002801D0FEF72FF986
:1020B00007B030BD0005005060000020194808B589
:1020C000416941F400114161416901F4001100913D
:1020D000416941F480014161416901F4800100914D
:1020E000416941F400214161416901F400210091FD
:1020F000416941F400314161416901F400310091CD
:10210000416941F480214161416901F480210091DC
:10211000416941F480114161406900F480100090F0
:1021200008BD00000010024010B596B000241294C3
:1021300013941C2168461494FEF78AF82C2107A8F2
:10214000FEF786F82D482C49C0E900148460C4606D
:10215000046144618461FFF7BBFD08B1FEF7D7F865
:102160001294139412A925481494FFF7B9FB08B1EF
:10217000FEF7CDF86020CDE90004029403940494A6
:102180000594002269461D480694FFF70DFD08B12D
:10219000FEF7BDF8042269461848FFF705FD08B1AF
:1021A000FEF7B5F8082269461448FFF7FDFC08B1B0
:1021B000FEF7ADF80C2269461048FFF7F5FC08B1B0
:1021C000FEF7A5F80794089409944FF400500A9478
:1021D000CDE90B400003CDE90E400D94109407A902
:1021E00006481194FFF736FB08B1FEF790F8034854
:1021F000FFF7EEFB16B010BD002C0140B000002030
:1022000010B58AB00024079408941C2168460994EC
:10221000FEF71EF820484FF08041C0E900148460AA
:10222000C46004618461FFF753FD08B1FEF76FF8E5
:10223000079407A918480994FFF752FB08B1FEF765
:1022400066F86020CDE90004029400226946124835
:102250000494FFF7A9FC08B1FEF759F80422694677
:102260000D48FFF7A1FC08B1FEF751F808226946B6
:102270000948FFF799FC08B1FEF749F80C226946B6
:102280000548FFF791FC08B1FEF741F80248FFF757
:102290009FFB0AB010BD0000F000002010B58AB00E
:1022A0000024079408941C2168460994FDF7D0FF88
:1022B00020481F49C0E900148460C460046184613F
:1022C000FFF706FD08B1FEF722F8079407A91948A1
:1022D0000994FFF705FB08B1FEF719F86020CDE976
:1022E000000402940022694612480494FFF75CFC43
:1022F00008B1FEF70CF8042269460E48FFF754FCBB
:1023000008B1FEF704F8082269460A48FFF74CFCBA
:1023100008B1FDF7FCFF0C2269460648FFF744FCB4
:1023200008B1FDF7F4FF0348FFF752FB0AB010BDF8
:10233000000400403001002010B58AB0002407944A
:1023400008941C2168460994FDF782FF20481F4924
:10235000C0E900148460C46004618461FFF7B8FCC4
:1023600008B1FDF7D4FF079407A919480994FFF7AE
:10237000B7FA08B1FDF7CBFF6020CDE90004029465
:102380000022694612480494FFF70EFC08B1FDF7DD
:10239000BEFF042269460E48FFF706FC08B1FDF7B0
:1023A000B6FF082269460A48FFF7FEFB08B1FDF7B1
:1023B000AEFF0C2269460648FFF7F6FB08B1FDF7B1
:1023C000A6FF0348FFF704FB0AB010BD0008004059
:1023D000700100203EB500240D48009401940B4983
:1023E0000294C0E900148460C4608461FFF7C0FAFD
:1023F00008B1FDF78CFF0094694605480294FFF789
:102400006FFA002801D0FDF782FF3EBD00100040AA
:10241000B001002010B596B00024129413941C2132
:1024200068461494FDF714FF2C2107A8FDF710FF50
:102430002D482C49C0E900148460C46004614461E3
:102440008461FFF745FC08B1FDF761FF1294139416
:1024500012A925481494FFF743FA08B1FDF757FF76
:102460006020CDE9000402940394049405940022B2
:1024700069461D480694FFF797FB08B1FDF747FF33
:10248000042269461848FFF78FFB08B1FDF73FFFAC
:10249000082269461448FFF787FB08B1FDF737FFAC
:1024A0000C2269461048FFF77FFB08B1FDF72FFFAC
:1024B0000794089409944FF400500A94CDE90B4016
:1024C0000003CDE90E400D94109407A9064811941D
:1024D000FFF7C0F908B1FDF71AFF0348FFF778FAD4
:1024E00016B010BD00340140F00100200D4810B5B9
:1024F0000B4901604FF416414160002181600C22BC
:10250000C160C0E904128161C16101624162FFF7EB
:10251000F3FC002803D0BDE81040FDF7F8BE10BD65
:102520000038014030020020FEE7704770477047D6
:10253000FEF7EEBB30B59FB028210FA8FDF788FE4F
:10254000142119A8FDF784FE3C216846FDF780FEA2
:102550000121002408041194CDE90F100225CDE9D2
:1025600016501391000118900FA8FEF77BFE0F2064
:10257000CDE919056802CDE91B40022119A81D9477
:10258000FEF762FD43F281100090E80109904001DE
:1025900002940A900C940D946846FEF749FC1FB013
:1025A00030BD00000548016841F470010160034935
:1025B0004FF00060803908607047000088ED00E04F
:1025C0002DE9F0430268234B234D244E244C4FF059
:1025D0008049984207D0484505D0A84203D0B04270
:1025E00001D0A04203D122F070074A683A431D4F40
:1025F000DFF874C0DFF8748098420DD048450BD0E6
:10260000A84209D0B04207D0A04205D0B84203D0BA
:10261000604501D0404503D122F44075CA682A4381
:102620004D6922F080022A4302608A68C2620A6809
:102630008262984207D0A04205D0B84203D06045DC
:1026400001D0404501D10969016301214161BDE823
:10265000F0830000002C014000040040000800400E
:102660000034014000400140004401400048014066
:102670002DE9F043026A22F001020262056A436812
:1026800082691C4C25F0020522400C6822F00302EE
:1026900014438A68194E2A43174D194FDFF864C056
:1026A000DFF86490A84207D0B04205D0B84203D00A
:1026B000604501D0484506D122F00808CA6842EAC0
:1026C000080222F00402A84207D0B04205D0B84266
:1026D00003D0604501D0484505D14D6923F44073CE
:1026E0001D438B692B4343608461496841630262E7
:1026F000BDE8F0838FFFFEFF002C01400034014055
:10270000004001400044014000480140F0B5026A29
:1027100022F010020262056A42688369194C1B4E5E
:1027200023400C6823F4407343EA042425F020037B
:102730008D6843EA0513144DA84201D0B04206D17A
:10274000CF6823F0800343EA071323F04003A84235
:102750000AD0B04208D00E4DA84205D00D4DA84277
:1027600002D00D4DA84207D14D6922F4406242EAE1
:1027700085028D6942EA850242608461496881630D
:102780000362F0BDFF8FFFFE002C014000340140CA
:10279000004001400044014000480140F0B5026A99
:1027A00022F480720262056A4368C269194C1B4EAA
:1027B00022400C6822F00302144325F400728D6855
:1027C00042EA0522144DA84201D0B04206D1CF689A
:1027D00022F4006242EA072222F48062A8420AD070
:1027E000B04208D00E4DA84205D00E4DA84202D0EE
:1027F0000D4DA84207D14D6923F4405343EA051318
:102800008D6943EA05134360C4614968C16302628C
:10281000F0BD00008FFFFEFF002C0140003401409E
:1028200000400140004401400048014030B5026AC8
:1028300022F480520262046A4268C369124D24F491
:1028400000542B400D6823F4407343EA05238D6840
:1028500044EA05340D4DA8420BD00D4DA84208D0D6
:102860000C4DA84205D00C4DA84202D00B4DA842F9
:1028700004D14D6922F4804242EA85124260C3616C
:1028800049680164046230BDFF8FFFFE002C0140E7
:102890000034014000400140004401400048014034
:1028A00030B5026A22F480320262046A4268436DE3
:1028B000114D2B400D681D4324F400330C8943EA6D
:1028C00004430E4CA0420BD00D4CA04208D00D4C3E
:1028D000A04205D00C4CA04202D00C4CA04204D126
:1028E0004C6922F4803242EA04224260456549681C
:1028F0008165036230BD00008FFFFEFF002C0140A8
:1029000000340140004001400044014000480140C3
:1029100030B5026A22F480120262046A4268436D92
:10292000114D24F400142B400D6843EA05230D8952
:1029300044EA05540D4DA8420BD00D4DA84208D0D5
:102940000C4DA84205D00C4DA84202D00B4DA84218
:1029500004D14D6922F4802242EA85224260436517
:102960004968C165046230BDFF8FFFFE002C014045
:102970000034014000400140004401400048014053
:1029800090F82410C90706D001684A68836A22F4C7
:1029900000321A434A6090F82410890706D501686E
:1029A0004A68C36A22F480321A434A6090F82410BD
:1029B000490706D501684A68036B22F480221A434E
:1029C0004A6090F82410090706D501684A68436BED
:1029D00022F400421A434A6090F82410C90606D532
:1029E00001688A68836B22F480521A438A6090F8E7
:1029F0002410890606D501688A68C36B22F4005248
:102A00001A438A6090F82410490611D501684A6873
:102A1000036C22F480121A434A60016CB1F5801FE6
:102A200006D101684A68436C22F4C0021A434A6026
:102A300090F82410090606D501684A68806C22F4D3
:102A4000002202434A607047F8B500260446C66774
:102A5000FEF758F90546206800686FF07E470007CA
:102A600008D52B4600224FF400112046009700F0B5
:102A700025F960B92068006840070AD52B46002276
:102A80004FF480012046009700F018F908B10320A8
:102A9000F8BD20206067A06784F870600020F8BD52
:102AA00010B5406A0021A0F85A10A0F85210FFF7A4
:102AB00072F910BD01680A6822F490720A60016818
:102AC0008A6822F001028A60202181670021016664
:102AD0007047000070B5044680682169E2690843C8
:102AE000616900251143084321680A6849F20C63B3
:102AF0009A4302430A6020684168E26821F4405129
:102B000011434160A169206A084321688A6822F460
:102B1000306202438A60614B206861494FF4803221
:102B200098420CD1086B10F0030006D001285DD04C
:102B300002285DD0032844D156E0012142E0594BE0
:102B400098420CD1086B10F440304BD090424DD0DD
:102B5000B0F5003F4CD0B0F5403F32D144E0524B8D
:102B600098420DD1086B10F440203BD0B0F5802F77
:102B70003CD0B0F5002F3BD0B0F5402F21D133E051
:102B80004A4B98420DD1086B10F440102AD0B0F592
:102B9000801F2BD0B0F5001F2AD0B0F5401F10D1F8
:102BA00022E0434B98420CD1086B10F4400019D03E
:102BB000B0F5800F1AD0B0F5000F19D0B0F5400F66
:102BC00012D01021E0694FF400434FF6EF7698429F
:102BD00034D109295BD2DFE801F00D10275A2A5AB7
:102BE0005A5A2D000021EDE70221EBE70421E9E725
:102BF0000821E7E7FEF7CCFA01E0FEF7E1FA410031
:102C0000D4F8040001EB5001B1FBF0F080B2A0F168
:102C10001001B1423BD84FF6F0710140C0F34200C1
:102C200001432068C16033E022496068EAE7FEF7AB
:102C3000DFFAE4E7606802EB5001E5E7092926D2F4
:102C4000DFE801F0050817251C2525251F00FEF7E4
:102C50009FFA01E0FEF7B4FA616800EB5100B0FBA7
:102C6000F1F080B2A0F11001B14210D82168C86023
:102C70000EE01149606801EB500105E0FEF7B8FA7B
:102C8000EAE7606803EB5001B1FBF0F0E9E70125EA
:102C9000002020666066284670BD000000380140B4
:102CA000001002400044004000480040004C00403A
:102CB000005000400024F40000127A002DE9F04793
:102CC0009A4617460E4604464FF000094FF020087A
:102CD000089D39E0681C37D0FEF714F8A0EB0A0015
:102CE000A84222D80DB32068016849072CD5C069D5
:102CF000C043000528D421684FF4006008622068B2
:102D0000016821F4D07101602068816821F001011F
:102D10008160C4F87480C4F87880C4F87C8000BFF7
:102D200084F870900320BDE8F0872068016821F4E2
:102D3000D07101602068816821F001018160C4F8D0
:102D40007480C4F87880EBE72068C06936EA000038
:102D500004D00020B842BDD00020E4E70120F9E70C
:102D60000148FFF719B8000030020020FEE709070C
:102D7000090E002804DB00F1E02080F80014704701
:102D800000F00F0000F1E02080F8141D704702E011
:102D900008C8121F08C1002AFAD1704770470020E6
:102DA00001E001C1121F002AFBD17047FDF7B8FFF7
:102DB000FFF7C0FBFFF782F9FFF70EF9FFF74AF9BB
:102DC000FFF7B2F9FFF71CFAFFF768FAFFF7B4FA5A
:102DD000FFF720FBFFF7FEFAFFF788FBFEE7020391
:102DE0000405060708090A0B0C0D0E0F101001024E
:102DF000030405060708090A0B0C0D0E0F1000004E
:102E0000000000000000010203040607080900009A
:102E10000000010203040000382E0008000000201A
:102E2000100000008E2D0008482E00081000002021
:102E3000A00600009E2D0008010000001000000008
:082E40000000000000127A00FE
:040000050800018965
:00000001FF
